{
  "_format": "hh-sol-artifact-1",
  "contractName": "BestGuessMaster",
  "sourceName": "contracts/BestGuessMaster.sol",
  "abi": [
    {
      "inputs": [],
      "name": "AccessControlBadConfirmation",
      "type": "error"
    },
    {
      "inputs": [
        {
          "internalType": "address",
          "name": "account",
          "type": "address"
        },
        {
          "internalType": "bytes32",
          "name": "neededRole",
          "type": "bytes32"
        }
      ],
      "name": "AccessControlUnauthorizedAccount",
      "type": "error"
    },
    {
      "inputs": [
        {
          "internalType": "address",
          "name": "target",
          "type": "address"
        }
      ],
      "name": "AddressEmptyCode",
      "type": "error"
    },
    {
      "inputs": [],
      "name": "ECDSAInvalidSignature",
      "type": "error"
    },
    {
      "inputs": [
        {
          "internalType": "uint256",
          "name": "length",
          "type": "uint256"
        }
      ],
      "name": "ECDSAInvalidSignatureLength",
      "type": "error"
    },
    {
      "inputs": [
        {
          "internalType": "bytes32",
          "name": "s",
          "type": "bytes32"
        }
      ],
      "name": "ECDSAInvalidSignatureS",
      "type": "error"
    },
    {
      "inputs": [
        {
          "internalType": "address",
          "name": "implementation",
          "type": "address"
        }
      ],
      "name": "ERC1967InvalidImplementation",
      "type": "error"
    },
    {
      "inputs": [],
      "name": "ERC1967NonPayable",
      "type": "error"
    },
    {
      "inputs": [],
      "name": "EnforcedPause",
      "type": "error"
    },
    {
      "inputs": [],
      "name": "ExpectedPause",
      "type": "error"
    },
    {
      "inputs": [],
      "name": "FailedCall",
      "type": "error"
    },
    {
      "inputs": [],
      "name": "InvalidInitialization",
      "type": "error"
    },
    {
      "inputs": [],
      "name": "NotInitializing",
      "type": "error"
    },
    {
      "inputs": [],
      "name": "ReentrancyGuardReentrantCall",
      "type": "error"
    },
    {
      "inputs": [],
      "name": "UUPSUnauthorizedCallContext",
      "type": "error"
    },
    {
      "inputs": [
        {
          "internalType": "bytes32",
          "name": "slot",
          "type": "bytes32"
        }
      ],
      "name": "UUPSUnsupportedProxiableUUID",
      "type": "error"
    },
    {
      "anonymous": false,
      "inputs": [
        {
          "indexed": true,
          "internalType": "address",
          "name": "user",
          "type": "address"
        },
        {
          "indexed": false,
          "internalType": "uint256",
          "name": "amount",
          "type": "uint256"
        },
        {
          "indexed": false,
          "internalType": "uint256",
          "name": "timestamp",
          "type": "uint256"
        }
      ],
      "name": "BetCleared",
      "type": "event"
    },
    {
      "anonymous": false,
      "inputs": [
        {
          "indexed": true,
          "internalType": "bytes32",
          "name": "itx",
          "type": "bytes32"
        },
        {
          "indexed": false,
          "internalType": "string",
          "name": "gameId",
          "type": "string"
        },
        {
          "indexed": false,
          "internalType": "uint256",
          "name": "timestamp",
          "type": "uint256"
        }
      ],
      "name": "BetGame",
      "type": "event"
    },
    {
      "anonymous": false,
      "inputs": [
        {
          "indexed": true,
          "internalType": "address",
          "name": "user",
          "type": "address"
        },
        {
          "indexed": false,
          "internalType": "uint256",
          "name": "amount",
          "type": "uint256"
        },
        {
          "indexed": false,
          "internalType": "uint256",
          "name": "timestamp",
          "type": "uint256"
        }
      ],
      "name": "Deposited",
      "type": "event"
    },
    {
      "anonymous": false,
      "inputs": [
        {
          "indexed": true,
          "internalType": "bytes32",
          "name": "itx",
          "type": "bytes32"
        },
        {
          "indexed": false,
          "internalType": "string",
          "name": "gameId",
          "type": "string"
        },
        {
          "indexed": false,
          "internalType": "address",
          "name": "winner",
          "type": "address"
        },
        {
          "indexed": false,
          "internalType": "uint256",
          "name": "amount",
          "type": "uint256"
        },
        {
          "indexed": false,
          "internalType": "uint256",
          "name": "timestamp",
          "type": "uint256"
        }
      ],
      "name": "GameEnded",
      "type": "event"
    },
    {
      "anonymous": false,
      "inputs": [
        {
          "indexed": false,
          "internalType": "uint64",
          "name": "version",
          "type": "uint64"
        }
      ],
      "name": "Initialized",
      "type": "event"
    },
    {
      "anonymous": false,
      "inputs": [
        {
          "indexed": false,
          "internalType": "address",
          "name": "account",
          "type": "address"
        }
      ],
      "name": "Paused",
      "type": "event"
    },
    {
      "anonymous": false,
      "inputs": [
        {
          "indexed": true,
          "internalType": "bytes32",
          "name": "role",
          "type": "bytes32"
        },
        {
          "indexed": true,
          "internalType": "bytes32",
          "name": "previousAdminRole",
          "type": "bytes32"
        },
        {
          "indexed": true,
          "internalType": "bytes32",
          "name": "newAdminRole",
          "type": "bytes32"
        }
      ],
      "name": "RoleAdminChanged",
      "type": "event"
    },
    {
      "anonymous": false,
      "inputs": [
        {
          "indexed": true,
          "internalType": "bytes32",
          "name": "role",
          "type": "bytes32"
        },
        {
          "indexed": true,
          "internalType": "address",
          "name": "account",
          "type": "address"
        },
        {
          "indexed": true,
          "internalType": "address",
          "name": "sender",
          "type": "address"
        }
      ],
      "name": "RoleGranted",
      "type": "event"
    },
    {
      "anonymous": false,
      "inputs": [
        {
          "indexed": true,
          "internalType": "bytes32",
          "name": "role",
          "type": "bytes32"
        },
        {
          "indexed": true,
          "internalType": "address",
          "name": "account",
          "type": "address"
        },
        {
          "indexed": true,
          "internalType": "address",
          "name": "sender",
          "type": "address"
        }
      ],
      "name": "RoleRevoked",
      "type": "event"
    },
    {
      "anonymous": false,
      "inputs": [
        {
          "indexed": false,
          "internalType": "address",
          "name": "account",
          "type": "address"
        }
      ],
      "name": "Unpaused",
      "type": "event"
    },
    {
      "anonymous": false,
      "inputs": [
        {
          "indexed": true,
          "internalType": "address",
          "name": "implementation",
          "type": "address"
        }
      ],
      "name": "Upgraded",
      "type": "event"
    },
    {
      "anonymous": false,
      "inputs": [
        {
          "indexed": true,
          "internalType": "address",
          "name": "user",
          "type": "address"
        },
        {
          "indexed": false,
          "internalType": "uint256",
          "name": "amount",
          "type": "uint256"
        },
        {
          "indexed": false,
          "internalType": "uint256",
          "name": "timestamp",
          "type": "uint256"
        }
      ],
      "name": "Withdrawn",
      "type": "event"
    },
    {
      "anonymous": false,
      "inputs": [
        {
          "indexed": true,
          "internalType": "address",
          "name": "user",
          "type": "address"
        },
        {
          "indexed": true,
          "internalType": "bytes32",
          "name": "itx",
          "type": "bytes32"
        },
        {
          "indexed": false,
          "internalType": "uint256",
          "name": "amount",
          "type": "uint256"
        },
        {
          "indexed": false,
          "internalType": "uint256",
          "name": "timestamp",
          "type": "uint256"
        }
      ],
      "name": "WithdrawnWithSignature",
      "type": "event"
    },
    {
      "inputs": [],
      "name": "DEFAULT_ADMIN_ROLE",
      "outputs": [
        {
          "internalType": "bytes32",
          "name": "",
          "type": "bytes32"
        }
      ],
      "stateMutability": "view",
      "type": "function"
    },
    {
      "inputs": [],
      "name": "OPERATION_ROLE",
      "outputs": [
        {
          "internalType": "bytes32",
          "name": "",
          "type": "bytes32"
        }
      ],
      "stateMutability": "view",
      "type": "function"
    },
    {
      "inputs": [],
      "name": "OWNER_ROLE",
      "outputs": [
        {
          "internalType": "bytes32",
          "name": "",
          "type": "bytes32"
        }
      ],
      "stateMutability": "view",
      "type": "function"
    },
    {
      "inputs": [],
      "name": "SIGNER_ROLE",
      "outputs": [
        {
          "internalType": "bytes32",
          "name": "",
          "type": "bytes32"
        }
      ],
      "stateMutability": "view",
      "type": "function"
    },
    {
      "inputs": [],
      "name": "UPGRADE_INTERFACE_VERSION",
      "outputs": [
        {
          "internalType": "string",
          "name": "",
          "type": "string"
        }
      ],
      "stateMutability": "view",
      "type": "function"
    },
    {
      "inputs": [
        {
          "internalType": "address",
          "name": "",
          "type": "address"
        }
      ],
      "name": "balances",
      "outputs": [
        {
          "internalType": "uint256",
          "name": "",
          "type": "uint256"
        }
      ],
      "stateMutability": "view",
      "type": "function"
    },
    {
      "inputs": [
        {
          "internalType": "bytes32",
          "name": "itx",
          "type": "bytes32"
        },
        {
          "internalType": "string",
          "name": "gameId",
          "type": "string"
        },
        {
          "internalType": "address[]",
          "name": "players",
          "type": "address[]"
        },
        {
          "internalType": "uint256[]",
          "name": "playerBets",
          "type": "uint256[]"
        }
      ],
      "name": "betGame",
      "outputs": [],
      "stateMutability": "nonpayable",
      "type": "function"
    },
    {
      "inputs": [
        {
          "internalType": "address",
          "name": "user",
          "type": "address"
        }
      ],
      "name": "clearBet",
      "outputs": [],
      "stateMutability": "nonpayable",
      "type": "function"
    },
    {
      "inputs": [],
      "name": "deposit",
      "outputs": [],
      "stateMutability": "payable",
      "type": "function"
    },
    {
      "inputs": [
        {
          "internalType": "bytes32",
          "name": "itx",
          "type": "bytes32"
        },
        {
          "internalType": "string",
          "name": "gameId",
          "type": "string"
        },
        {
          "internalType": "address",
          "name": "winner",
          "type": "address"
        }
      ],
      "name": "endGame",
      "outputs": [],
      "stateMutability": "nonpayable",
      "type": "function"
    },
    {
      "inputs": [
        {
          "internalType": "address",
          "name": "user",
          "type": "address"
        }
      ],
      "name": "getAvailableToWithdraw",
      "outputs": [
        {
          "internalType": "uint256",
          "name": "",
          "type": "uint256"
        }
      ],
      "stateMutability": "view",
      "type": "function"
    },
    {
      "inputs": [
        {
          "internalType": "address",
          "name": "user",
          "type": "address"
        }
      ],
      "name": "getBalance",
      "outputs": [
        {
          "internalType": "uint256",
          "name": "",
          "type": "uint256"
        }
      ],
      "stateMutability": "view",
      "type": "function"
    },
    {
      "inputs": [
        {
          "internalType": "string",
          "name": "gameId",
          "type": "string"
        }
      ],
      "name": "getGamePlayers",
      "outputs": [
        {
          "internalType": "address[]",
          "name": "",
          "type": "address[]"
        }
      ],
      "stateMutability": "view",
      "type": "function"
    },
    {
      "inputs": [
        {
          "internalType": "string",
          "name": "gameId",
          "type": "string"
        }
      ],
      "name": "getGameStatus",
      "outputs": [
        {
          "internalType": "enum BestGuessMaster.GameStatus",
          "name": "",
          "type": "uint8"
        }
      ],
      "stateMutability": "view",
      "type": "function"
    },
    {
      "inputs": [
        {
          "internalType": "string",
          "name": "gameId",
          "type": "string"
        }
      ],
      "name": "getGameWinner",
      "outputs": [
        {
          "internalType": "address",
          "name": "",
          "type": "address"
        }
      ],
      "stateMutability": "view",
      "type": "function"
    },
    {
      "inputs": [
        {
          "internalType": "string",
          "name": "gameId",
          "type": "string"
        },
        {
          "internalType": "address",
          "name": "player",
          "type": "address"
        }
      ],
      "name": "getPlayerBet",
      "outputs": [
        {
          "internalType": "uint256",
          "name": "",
          "type": "uint256"
        }
      ],
      "stateMutability": "view",
      "type": "function"
    },
    {
      "inputs": [
        {
          "internalType": "bytes32",
          "name": "role",
          "type": "bytes32"
        }
      ],
      "name": "getRoleAdmin",
      "outputs": [
        {
          "internalType": "bytes32",
          "name": "",
          "type": "bytes32"
        }
      ],
      "stateMutability": "view",
      "type": "function"
    },
    {
      "inputs": [
        {
          "internalType": "bytes32",
          "name": "role",
          "type": "bytes32"
        },
        {
          "internalType": "address",
          "name": "account",
          "type": "address"
        }
      ],
      "name": "grantRole",
      "outputs": [],
      "stateMutability": "nonpayable",
      "type": "function"
    },
    {
      "inputs": [
        {
          "internalType": "bytes32",
          "name": "role",
          "type": "bytes32"
        },
        {
          "internalType": "address",
          "name": "account",
          "type": "address"
        }
      ],
      "name": "hasRole",
      "outputs": [
        {
          "internalType": "bool",
          "name": "",
          "type": "bool"
        }
      ],
      "stateMutability": "view",
      "type": "function"
    },
    {
      "inputs": [
        {
          "internalType": "address",
          "name": "owner",
          "type": "address"
        }
      ],
      "name": "initialize",
      "outputs": [],
      "stateMutability": "nonpayable",
      "type": "function"
    },
    {
      "inputs": [
        {
          "internalType": "bytes32",
          "name": "txId",
          "type": "bytes32"
        }
      ],
      "name": "isTxUsed",
      "outputs": [
        {
          "internalType": "bool",
          "name": "",
          "type": "bool"
        }
      ],
      "stateMutability": "view",
      "type": "function"
    },
    {
      "inputs": [],
      "name": "pause",
      "outputs": [],
      "stateMutability": "nonpayable",
      "type": "function"
    },
    {
      "inputs": [],
      "name": "paused",
      "outputs": [
        {
          "internalType": "bool",
          "name": "",
          "type": "bool"
        }
      ],
      "stateMutability": "view",
      "type": "function"
    },
    {
      "inputs": [],
      "name": "proxiableUUID",
      "outputs": [
        {
          "internalType": "bytes32",
          "name": "",
          "type": "bytes32"
        }
      ],
      "stateMutability": "view",
      "type": "function"
    },
    {
      "inputs": [
        {
          "internalType": "bytes32",
          "name": "role",
          "type": "bytes32"
        },
        {
          "internalType": "address",
          "name": "callerConfirmation",
          "type": "address"
        }
      ],
      "name": "renounceRole",
      "outputs": [],
      "stateMutability": "nonpayable",
      "type": "function"
    },
    {
      "inputs": [
        {
          "internalType": "bytes32",
          "name": "role",
          "type": "bytes32"
        },
        {
          "internalType": "address",
          "name": "account",
          "type": "address"
        }
      ],
      "name": "revokeRole",
      "outputs": [],
      "stateMutability": "nonpayable",
      "type": "function"
    },
    {
      "inputs": [
        {
          "internalType": "bytes4",
          "name": "interfaceId",
          "type": "bytes4"
        }
      ],
      "name": "supportsInterface",
      "outputs": [
        {
          "internalType": "bool",
          "name": "",
          "type": "bool"
        }
      ],
      "stateMutability": "view",
      "type": "function"
    },
    {
      "inputs": [],
      "name": "unpause",
      "outputs": [],
      "stateMutability": "nonpayable",
      "type": "function"
    },
    {
      "inputs": [
        {
          "internalType": "address",
          "name": "newImplementation",
          "type": "address"
        },
        {
          "internalType": "bytes",
          "name": "data",
          "type": "bytes"
        }
      ],
      "name": "upgradeToAndCall",
      "outputs": [],
      "stateMutability": "payable",
      "type": "function"
    },
    {
      "inputs": [
        {
          "internalType": "uint256",
          "name": "amount",
          "type": "uint256"
        }
      ],
      "name": "withdraw",
      "outputs": [],
      "stateMutability": "nonpayable",
      "type": "function"
    },
    {
      "inputs": [
        {
          "internalType": "bytes32",
          "name": "itx",
          "type": "bytes32"
        },
        {
          "internalType": "uint256",
          "name": "amount",
          "type": "uint256"
        },
        {
          "internalType": "bytes",
          "name": "signature",
          "type": "bytes"
        }
      ],
      "name": "withdrawWithSignature",
      "outputs": [],
      "stateMutability": "nonpayable",
      "type": "function"
    },
    {
      "stateMutability": "payable",
      "type": "receive"
    }
  ],
  "bytecode": "0x60a06040523073ffffffffffffffffffffffffffffffffffffffff1660809073ffffffffffffffffffffffffffffffffffffffff16815250348015604257600080fd5b50608051614b6161006c600039600081816128cf015281816129240152612b020152614b616000f3fe6080604052600436106101dc5760003560e01c80638545d8df11610102578063cbf20cba11610095578063e58378bb11610064578063e58378bb14610745578063e6ca208414610770578063f111cc5c146107ad578063f8b2cb4f146107ea57610291565b8063cbf20cba146106ac578063d0e30db0146106d5578063d547741f146106df578063e4c842091461070857610291565b8063a217fddf116100d1578063a217fddf14610604578063ad3cb1cc1461062f578063c06407a21461065a578063c4d66de81461068357610291565b80638545d8df1461053457806391d148541461055f57806397f7caf51461059c578063a1ebf35d146105d957610291565b8063457d13ca1161017a5780635c975abb116101495780635c975abb1461048c57806375ff4590146104b7578063824a6290146104e05780638456cb591461051d57610291565b8063457d13ca146103df5780634f1ef2861461041c57806352d1902d1461043857806358899c711461046357610291565b80632e1a7d4d116101b65780632e1a7d4d1461034d5780632f2ff15d1461037657806336568abe1461039f5780633f4ba83a146103c857610291565b806301ffc9a714610296578063248a9ca3146102d357806327e235e31461031057610291565b36610291576101e9610827565b34600160003373ffffffffffffffffffffffffffffffffffffffff1673ffffffffffffffffffffffffffffffffffffffff16815260200190815260200160002060008282546102389190613595565b925050819055503373ffffffffffffffffffffffffffffffffffffffff167f73a19dd210f1a7f902193214c0ee91dd35ee5b4d920cba8d519eca65a7b488ca34426040516102879291906135d8565b60405180910390a2005b600080fd5b3480156102a257600080fd5b506102bd60048036038101906102b8919061366d565b610868565b6040516102ca91906136b5565b60405180910390f35b3480156102df57600080fd5b506102fa60048036038101906102f59190613706565b6108e2565b6040516103079190613742565b60405180910390f35b34801561031c57600080fd5b50610337600480360381019061033291906137bb565b610910565b60405161034491906137e8565b60405180910390f35b34801561035957600080fd5b50610374600480360381019061036f919061382f565b610928565b005b34801561038257600080fd5b5061039d6004803603810190610398919061385c565b610c27565b005b3480156103ab57600080fd5b506103c660048036038101906103c1919061385c565b610c49565b005b3480156103d457600080fd5b506103dd610cc4565b005b3480156103eb57600080fd5b5061040660048036038101906104019190613901565b610cf9565b60405161041391906137e8565b60405180910390f35b61043660048036038101906104319190613aa2565b610d65565b005b34801561044457600080fd5b5061044d610d84565b60405161045a9190613742565b60405180910390f35b34801561046f57600080fd5b5061048a60048036038101906104859190613b54565b610db7565b005b34801561049857600080fd5b506104a16111a2565b6040516104ae91906136b5565b60405180910390f35b3480156104c357600080fd5b506104de60048036038101906104d991906137bb565b6111c7565b005b3480156104ec57600080fd5b50610507600480360381019061050291906137bb565b6112cf565b60405161051491906137e8565b60405180910390f35b34801561052957600080fd5b506105326113f2565b005b34801561054057600080fd5b50610549611427565b6040516105569190613742565b60405180910390f35b34801561056b57600080fd5b506105866004803603810190610581919061385c565b61144b565b60405161059391906136b5565b60405180910390f35b3480156105a857600080fd5b506105c360048036038101906105be9190613bc8565b6114c4565b6040516105d09190613c24565b60405180910390f35b3480156105e557600080fd5b506105ee611512565b6040516105fb9190613742565b60405180910390f35b34801561061057600080fd5b50610619611536565b6040516106269190613742565b60405180910390f35b34801561063b57600080fd5b5061064461153d565b6040516106519190613cbe565b60405180910390f35b34801561066657600080fd5b50610681600480360381019061067c9190613d8c565b611576565b005b34801561068f57600080fd5b506106aa60048036038101906106a591906137bb565b611aac565b005b3480156106b857600080fd5b506106d360048036038101906106ce9190613e55565b611d3b565b005b6106dd6122ac565b005b3480156106eb57600080fd5b506107066004803603810190610701919061385c565b61239f565b005b34801561071457600080fd5b5061072f600480360381019061072a9190613bc8565b6123c1565b60405161073c9190613f87565b60405180910390f35b34801561075157600080fd5b5061075a612473565b6040516107679190613742565b60405180910390f35b34801561077c57600080fd5b5061079760048036038101906107929190613706565b612497565b6040516107a491906136b5565b60405180910390f35b3480156107b957600080fd5b506107d460048036038101906107cf9190613bc8565b6124b6565b6040516107e19190614020565b60405180910390f35b3480156107f657600080fd5b50610811600480360381019061080c91906137bb565b6124f1565b60405161081e91906137e8565b60405180910390f35b61082f6111a2565b15610866576040517fd93c066500000000000000000000000000000000000000000000000000000000815260040160405180910390fd5b565b60007f7965db0b000000000000000000000000000000000000000000000000000000007bffffffffffffffffffffffffffffffffffffffffffffffffffffffff1916827bffffffffffffffffffffffffffffffffffffffffffffffffffffffff191614806108db57506108da8261253a565b5b9050919050565b6000806108ed6125a4565b905080600001600084815260200190815260200160002060010154915050919050565b60016020528060005260406000206000915090505481565b610930610827565b6109386125cc565b6000811161097b576040517f08c379a000000000000000000000000000000000000000000000000000000000815260040161097290614087565b60405180910390fd5b600260003373ffffffffffffffffffffffffffffffffffffffff1673ffffffffffffffffffffffffffffffffffffffff1681526020019081526020016000205481600160003373ffffffffffffffffffffffffffffffffffffffff1673ffffffffffffffffffffffffffffffffffffffff16815260200190815260200160002054610a0691906140a7565b1015610a47576040517f08c379a0000000000000000000000000000000000000000000000000000000008152600401610a3e90614127565b60405180910390fd5b80600160003373ffffffffffffffffffffffffffffffffffffffff1673ffffffffffffffffffffffffffffffffffffffff168152602001908152602001600020541015610ac9576040517f08c379a0000000000000000000000000000000000000000000000000000000008152600401610ac090614193565b60405180910390fd5b80600160003373ffffffffffffffffffffffffffffffffffffffff1673ffffffffffffffffffffffffffffffffffffffff1681526020019081526020016000206000828254610b1891906140a7565b9250508190555060003373ffffffffffffffffffffffffffffffffffffffff1682604051610b45906141e4565b60006040518083038185875af1925050503d8060008114610b82576040519150601f19603f3d011682016040523d82523d6000602084013e610b87565b606091505b5050905080610bcb576040517f08c379a0000000000000000000000000000000000000000000000000000000008152600401610bc290614245565b60405180910390fd5b3373ffffffffffffffffffffffffffffffffffffffff167f92ccf450a286a957af52509bc1c9939d1a6a481783e142e41e2499f0bb66ebc68342604051610c139291906135d8565b60405180910390a250610c24612623565b50565b610c30826108e2565b610c398161263c565b610c438383612650565b50505050565b610c51612751565b73ffffffffffffffffffffffffffffffffffffffff168173ffffffffffffffffffffffffffffffffffffffff1614610cb5576040517f6697b23200000000000000000000000000000000000000000000000000000000815260040160405180910390fd5b610cbf8282612759565b505050565b7fb19546dff01e856fb3f010c267a7b1c60363cf8a4664e21cc89c26224620214e610cee8161263c565b610cf661285b565b50565b600060038484604051610d0d929190614295565b908152602001604051809103902060010160008373ffffffffffffffffffffffffffffffffffffffff1673ffffffffffffffffffffffffffffffffffffffff1681526020019081526020016000205490509392505050565b610d6d6128cd565b610d76826129b3565b610d8082826129e1565b5050565b6000610d8e612b00565b7f360894a13ba1a3210667c828492db98dca3e2076cc3735a920a3ca505d382bbc60001b905090565b610dbf6125cc565b610dc7610827565b60008060008681526020019081526020016000205414610e1c576040517f08c379a0000000000000000000000000000000000000000000000000000000008152600401610e13906142fa565b60405180910390fd5b60008311610e5f576040517f08c379a0000000000000000000000000000000000000000000000000000000008152600401610e5690614366565b60405180910390fd5b600033858530604051602001610e789493929190614410565b604051602081830303815290604052805190602001209050610e9b818484612b87565b610eda576040517f08c379a0000000000000000000000000000000000000000000000000000000008152600401610ed1906144aa565b60405180910390fd5b4260008087815260200190815260200160002081905550600260003373ffffffffffffffffffffffffffffffffffffffff1673ffffffffffffffffffffffffffffffffffffffff1681526020019081526020016000205484600160003373ffffffffffffffffffffffffffffffffffffffff1673ffffffffffffffffffffffffffffffffffffffff16815260200190815260200160002054610f7c91906140a7565b1015610fbd576040517f08c379a0000000000000000000000000000000000000000000000000000000008152600401610fb490614127565b60405180910390fd5b83600160003373ffffffffffffffffffffffffffffffffffffffff1673ffffffffffffffffffffffffffffffffffffffff16815260200190815260200160002054101561103f576040517f08c379a000000000000000000000000000000000000000000000000000000000815260040161103690614193565b60405180910390fd5b83600160003373ffffffffffffffffffffffffffffffffffffffff1673ffffffffffffffffffffffffffffffffffffffff168152602001908152602001600020600082825461108e91906140a7565b9250508190555060003373ffffffffffffffffffffffffffffffffffffffff16856040516110bb906141e4565b60006040518083038185875af1925050503d80600081146110f8576040519150601f19603f3d011682016040523d82523d6000602084013e6110fd565b606091505b5050905080611141576040517f08c379a000000000000000000000000000000000000000000000000000000000815260040161113890614516565b60405180910390fd5b853373ffffffffffffffffffffffffffffffffffffffff167f64f6745c86b02c19d4fa98167e77fe876b8ef8596fc5ef31a36fddfcc2f63fb2874260405161118a9291906135d8565b60405180910390a3505061119c612623565b50505050565b6000806111ad612c25565b90508060000160009054906101000a900460ff1691505090565b7f20296b01d0b6bd176f0c1e29644934c0047abf080dae43609a1bbc09e39bafdb6111f18161263c565b6000600260008473ffffffffffffffffffffffffffffffffffffffff1673ffffffffffffffffffffffffffffffffffffffff1681526020019081526020016000205490506000600260008573ffffffffffffffffffffffffffffffffffffffff1673ffffffffffffffffffffffffffffffffffffffff168152602001908152602001600020819055508273ffffffffffffffffffffffffffffffffffffffff167f7ed2b3a68a9cba398f88465867a23d2b48e4050132ee94e79227107391aee34c82426040516112c29291906135d8565b60405180910390a2505050565b6000600260008373ffffffffffffffffffffffffffffffffffffffff1673ffffffffffffffffffffffffffffffffffffffff16815260200190815260200160002054600160008473ffffffffffffffffffffffffffffffffffffffff1673ffffffffffffffffffffffffffffffffffffffff1681526020019081526020016000205411156113e857600260008373ffffffffffffffffffffffffffffffffffffffff1673ffffffffffffffffffffffffffffffffffffffff16815260200190815260200160002054600160008473ffffffffffffffffffffffffffffffffffffffff1673ffffffffffffffffffffffffffffffffffffffff168152602001908152602001600020546113e191906140a7565b90506113ed565b600090505b919050565b7fb19546dff01e856fb3f010c267a7b1c60363cf8a4664e21cc89c26224620214e61141c8161263c565b611424612c4d565b50565b7f20296b01d0b6bd176f0c1e29644934c0047abf080dae43609a1bbc09e39bafdb81565b6000806114566125a4565b905080600001600085815260200190815260200160002060000160008473ffffffffffffffffffffffffffffffffffffffff1673ffffffffffffffffffffffffffffffffffffffff16815260200190815260200160002060009054906101000a900460ff1691505092915050565b6000600383836040516114d8929190614295565b908152602001604051809103902060020160009054906101000a900473ffffffffffffffffffffffffffffffffffffffff16905092915050565b7fe2f4eaae4a9751e85a3e4a7b9587827a877f29914755229b07a7b2da98285f7081565b6000801b81565b6040518060400160405280600581526020017f352e302e3000000000000000000000000000000000000000000000000000000081525081565b7f20296b01d0b6bd176f0c1e29644934c0047abf080dae43609a1bbc09e39bafdb6115a08161263c565b6115a86125cc565b6115b0610827565b60008060008a81526020019081526020016000205414611605576040517f08c379a00000000000000000000000000000000000000000000000000000000081526004016115fc906142fa565b60405180910390fd5b600085859050905060018111611650576040517f08c379a000000000000000000000000000000000000000000000000000000000815260040161164790614582565b60405180910390fd5b838390508114611695576040517f08c379a000000000000000000000000000000000000000000000000000000000815260040161168c90614614565b60405180910390fd5b6000600389896040516116a9929190614295565b90815260200160405180910390209050600060028111156116cd576116cc613fa9565b5b8160040160009054906101000a900460ff1660028111156116f1576116f0613fa9565b5b14611731576040517f08c379a000000000000000000000000000000000000000000000000000000000815260040161172890614680565b60405180910390fd5b60008160030154036117745742816003018190555060018160040160006101000a81548160ff0219169083600281111561176e5761176d613fa9565b5b02179055505b60005b82811015611a44576000888883818110611794576117936146a0565b5b90506020020160208101906117a991906137bb565b905060008787848181106117c0576117bf6146a0565b5b9050602002013590506000811161180c576040517f08c379a00000000000000000000000000000000000000000000000000000000081526004016118039061471b565b60405180910390fd5b80600260008473ffffffffffffffffffffffffffffffffffffffff1673ffffffffffffffffffffffffffffffffffffffff168152602001908152602001600020546118579190613595565b600160008473ffffffffffffffffffffffffffffffffffffffff1673ffffffffffffffffffffffffffffffffffffffff1681526020019081526020016000205410156118d8576040517f08c379a00000000000000000000000000000000000000000000000000000000081526004016118cf90614193565b60405180910390fd5b60008460010160008473ffffffffffffffffffffffffffffffffffffffff1673ffffffffffffffffffffffffffffffffffffffff16815260200190815260200160002054036119875783600001829080600181540180825580915050600190039060005260206000200160009091909190916101000a81548173ffffffffffffffffffffffffffffffffffffffff021916908373ffffffffffffffffffffffffffffffffffffffff1602179055505b808460010160008473ffffffffffffffffffffffffffffffffffffffff1673ffffffffffffffffffffffffffffffffffffffff16815260200190815260200160002060008282546119d89190613595565b9250508190555080600260008473ffffffffffffffffffffffffffffffffffffffff1673ffffffffffffffffffffffffffffffffffffffff1681526020019081526020016000206000828254611a2e9190613595565b9250508190555050508080600101915050611777565b50426000808c815260200190815260200160002081905550897ff692ef2076c1132990cc14ead20651f758521d40082e009547710a646222d1b88a8a42604051611a9093929190614768565b60405180910390a25050611aa2612623565b5050505050505050565b6000611ab6612cbf565b905060008160000160089054906101000a900460ff1615905060008260000160009054906101000a900467ffffffffffffffff1690506000808267ffffffffffffffff16148015611b045750825b9050600060018367ffffffffffffffff16148015611b39575060003073ffffffffffffffffffffffffffffffffffffffff163b145b905081158015611b47575080155b15611b7e576040517ff92ee8a900000000000000000000000000000000000000000000000000000000815260040160405180910390fd5b60018560000160006101000a81548167ffffffffffffffff021916908367ffffffffffffffff1602179055508315611bce5760018560000160086101000a81548160ff0219169083151502179055505b611bd6612cd3565b611bde612cdd565b611be6612cef565b611bee612cf9565b611c187fb19546dff01e856fb3f010c267a7b1c60363cf8a4664e21cc89c26224620214e80612d03565b611c627fe2f4eaae4a9751e85a3e4a7b9587827a877f29914755229b07a7b2da98285f707fb19546dff01e856fb3f010c267a7b1c60363cf8a4664e21cc89c26224620214e612d03565b611cac7f20296b01d0b6bd176f0c1e29644934c0047abf080dae43609a1bbc09e39bafdb7fb19546dff01e856fb3f010c267a7b1c60363cf8a4664e21cc89c26224620214e612d03565b611cd67fb19546dff01e856fb3f010c267a7b1c60363cf8a4664e21cc89c26224620214e87612650565b508315611d335760008560000160086101000a81548160ff0219169083151502179055507fc7f505b2f371ae2175ee4913f4499e1f2633a7b5936321eed1cdaeb6115181d26001604051611d2a91906147f3565b60405180910390a15b505050505050565b7f20296b01d0b6bd176f0c1e29644934c0047abf080dae43609a1bbc09e39bafdb611d658161263c565b611d6d6125cc565b611d75610827565b60008060008781526020019081526020016000205414611dca576040517f08c379a0000000000000000000000000000000000000000000000000000000008152600401611dc1906142fa565b60405180910390fd5b600060038585604051611dde929190614295565b9081526020016040518091039020905060016002811115611e0257611e01613fa9565b5b8160040160009054906101000a900460ff166002811115611e2657611e25613fa9565b5b14611e66576040517f08c379a0000000000000000000000000000000000000000000000000000000008152600401611e5d9061485a565b60405180910390fd5b60008160010160008573ffffffffffffffffffffffffffffffffffffffff1673ffffffffffffffffffffffffffffffffffffffff1681526020019081526020016000205411611eea576040517f08c379a0000000000000000000000000000000000000000000000000000000008152600401611ee1906148c6565b60405180910390fd5b60028160040160006101000a81548160ff02191690836002811115611f1257611f11613fa9565b5b0217905550828160020160006101000a81548173ffffffffffffffffffffffffffffffffffffffff021916908373ffffffffffffffffffffffffffffffffffffffff1602179055506000805b8260000180549050811015612177576000836000018281548110611f8557611f846146a0565b5b9060005260206000200160009054906101000a900473ffffffffffffffffffffffffffffffffffffffff16905060008460010160008373ffffffffffffffffffffffffffffffffffffffff1673ffffffffffffffffffffffffffffffffffffffff16815260200190815260200160002054905080600260008473ffffffffffffffffffffffffffffffffffffffff1673ffffffffffffffffffffffffffffffffffffffff168152602001908152602001600020600082825461204791906140a7565b925050819055508673ffffffffffffffffffffffffffffffffffffffff168273ffffffffffffffffffffffffffffffffffffffff16146121685780600160008473ffffffffffffffffffffffffffffffffffffffff1673ffffffffffffffffffffffffffffffffffffffff168152602001908152602001600020541015612103576040517f08c379a00000000000000000000000000000000000000000000000000000000081526004016120fa90614932565b60405180910390fd5b80600160008473ffffffffffffffffffffffffffffffffffffffff1673ffffffffffffffffffffffffffffffffffffffff168152602001908152602001600020600082825461215291906140a7565b9250508190555080846121659190613595565b93505b50508080600101915050611f5e565b5080600160008673ffffffffffffffffffffffffffffffffffffffff1673ffffffffffffffffffffffffffffffffffffffff16815260200190815260200160002060008282546121c79190613595565b925050819055504260008089815260200190815260200160002081905550867f152b650f63bd7f0b493736bd102f1d42cd41930e270e0e30798037813ac31595878787854260405161221d959493929190614952565b60405180910390a260038686604051612237929190614295565b908152602001604051809103902060008082016000612256919061351e565b6002820160006101000a81549073ffffffffffffffffffffffffffffffffffffffff021916905560038201600090556004820160006101000a81549060ff0219169055505050506122a5612623565b5050505050565b6122b4610827565b600034116122f7576040517f08c379a00000000000000000000000000000000000000000000000000000000081526004016122ee906149ec565b60405180910390fd5b34600160003373ffffffffffffffffffffffffffffffffffffffff1673ffffffffffffffffffffffffffffffffffffffff16815260200190815260200160002060008282546123469190613595565b925050819055503373ffffffffffffffffffffffffffffffffffffffff167f73a19dd210f1a7f902193214c0ee91dd35ee5b4d920cba8d519eca65a7b488ca34426040516123959291906135d8565b60405180910390a2565b6123a8826108e2565b6123b18161263c565b6123bb8383612759565b50505050565b6060600383836040516123d5929190614295565b908152602001604051809103902060000180548060200260200160405190810160405280929190818152602001828054801561246657602002820191906000526020600020905b8160009054906101000a900473ffffffffffffffffffffffffffffffffffffffff1673ffffffffffffffffffffffffffffffffffffffff168152602001906001019080831161241c575b5050505050905092915050565b7fb19546dff01e856fb3f010c267a7b1c60363cf8a4664e21cc89c26224620214e81565b6000806000808481526020019081526020016000205414159050919050565b6000600383836040516124ca929190614295565b908152602001604051809103902060040160009054906101000a900460ff16905092915050565b6000600160008373ffffffffffffffffffffffffffffffffffffffff1673ffffffffffffffffffffffffffffffffffffffff168152602001908152602001600020549050919050565b60007f01ffc9a7000000000000000000000000000000000000000000000000000000007bffffffffffffffffffffffffffffffffffffffffffffffffffffffff1916827bffffffffffffffffffffffffffffffffffffffffffffffffffffffff1916149050919050565b60007f02dd7bc7dec4dceedda775e58dd541e08a116c6c53815c0bd028192f7b626800905090565b60006125d6612d6e565b90506002816000015403612616576040517f3ee5aeb500000000000000000000000000000000000000000000000000000000815260040160405180910390fd5b6002816000018190555050565b600061262d612d6e565b90506001816000018190555050565b61264d81612648612751565b612d96565b50565b60008061265b6125a4565b9050612667848461144b565b61274557600181600001600086815260200190815260200160002060000160008573ffffffffffffffffffffffffffffffffffffffff1673ffffffffffffffffffffffffffffffffffffffff16815260200190815260200160002060006101000a81548160ff0219169083151502179055506126e1612751565b73ffffffffffffffffffffffffffffffffffffffff168373ffffffffffffffffffffffffffffffffffffffff16857f2f8788117e7eff1d82e926ec794901d17c78024a50270940304540a733656f0d60405160405180910390a4600191505061274b565b60009150505b92915050565b600033905090565b6000806127646125a4565b9050612770848461144b565b1561284f57600081600001600086815260200190815260200160002060000160008573ffffffffffffffffffffffffffffffffffffffff1673ffffffffffffffffffffffffffffffffffffffff16815260200190815260200160002060006101000a81548160ff0219169083151502179055506127eb612751565b73ffffffffffffffffffffffffffffffffffffffff168373ffffffffffffffffffffffffffffffffffffffff16857ff6391f5c32d9c69d2a47ea670b442974b53935d1edc7fd64eb21e047a839171b60405160405180910390a46001915050612855565b60009150505b92915050565b612863612de7565b600061286d612c25565b905060008160000160006101000a81548160ff0219169083151502179055507f5db9ee0a495bf2e6ff9c91a7834c1ba4fdd244a5e8aa4e537bd38aeae4b073aa6128b5612751565b6040516128c29190613c24565b60405180910390a150565b7f000000000000000000000000000000000000000000000000000000000000000073ffffffffffffffffffffffffffffffffffffffff163073ffffffffffffffffffffffffffffffffffffffff16148061297a57507f000000000000000000000000000000000000000000000000000000000000000073ffffffffffffffffffffffffffffffffffffffff16612961612e27565b73ffffffffffffffffffffffffffffffffffffffff1614155b156129b1576040517fe07c8dba00000000000000000000000000000000000000000000000000000000815260040160405180910390fd5b565b7fb19546dff01e856fb3f010c267a7b1c60363cf8a4664e21cc89c26224620214e6129dd8161263c565b5050565b8173ffffffffffffffffffffffffffffffffffffffff166352d1902d6040518163ffffffff1660e01b8152600401602060405180830381865afa925050508015612a4957506040513d601f19601f82011682018060405250810190612a469190614a21565b60015b612a8a57816040517f4c9c8ce3000000000000000000000000000000000000000000000000000000008152600401612a819190613c24565b60405180910390fd5b7f360894a13ba1a3210667c828492db98dca3e2076cc3735a920a3ca505d382bbc60001b8114612af157806040517faa1d49a4000000000000000000000000000000000000000000000000000000008152600401612ae89190613742565b60405180910390fd5b612afb8383612e7e565b505050565b7f000000000000000000000000000000000000000000000000000000000000000073ffffffffffffffffffffffffffffffffffffffff163073ffffffffffffffffffffffffffffffffffffffff1614612b85576040517fe07c8dba00000000000000000000000000000000000000000000000000000000815260040160405180910390fd5b565b600080612b9385612ef1565b90506000612bee85858080601f016020809104026020016040519081016040528093929190818152602001838380828437600081840152601f19601f8201169050808301925050505050505083612f2790919063ffffffff16565b9050612c1a7fe2f4eaae4a9751e85a3e4a7b9587827a877f29914755229b07a7b2da98285f708261144b565b925050509392505050565b60007fcd5ed15c6e187e77e9aee88184c21f4f2182ab5827cb3b7e07fbedcd63f03300905090565b612c55610827565b6000612c5f612c25565b905060018160000160006101000a81548160ff0219169083151502179055507f62e78cea01bee320cd4e420270b5ea74000d11b0c9f74754ebdbfc544b05a258612ca7612751565b604051612cb49190613c24565b60405180910390a150565b600080612cca612f53565b90508091505090565b612cdb612f7e565b565b612ce5612f7e565b612ced612fbe565b565b612cf7612f7e565b565b612d01612f7e565b565b6000612d0d6125a4565b90506000612d1a846108e2565b905082826000016000868152602001908152602001600020600101819055508281857fbd79b86ffe0ab8e8776151514217cd7cacd52c909f66475c3af44e129f0b00ff60405160405180910390a450505050565b60007f9b779b17422d0df92223018b32b4d1fa46e071723d6817e2486d003becc55f00905090565b612da0828261144b565b612de35780826040517fe2517d3f000000000000000000000000000000000000000000000000000000008152600401612dda929190614a4e565b60405180910390fd5b5050565b612def6111a2565b612e25576040517f8dfc202b00000000000000000000000000000000000000000000000000000000815260040160405180910390fd5b565b6000612e557f360894a13ba1a3210667c828492db98dca3e2076cc3735a920a3ca505d382bbc60001b612fdf565b60000160009054906101000a900473ffffffffffffffffffffffffffffffffffffffff16905090565b612e8782612fe9565b8173ffffffffffffffffffffffffffffffffffffffff167fbc7cd75a20ee27fd9adebab32041f755214dbc6bffa90cc0225b39da2e5c2d3b60405160405180910390a2600081511115612ee457612ede82826130b6565b50612eed565b612eec61313a565b5b5050565b60007f19457468657265756d205369676e6564204d6573736167653a0a33320000000060005281601c52603c6000209050919050565b600080600080612f378686613177565b925092509250612f4782826131d3565b82935050505092915050565b60007ff0c57e16840df040f15088dc2f81fe391c3923bec73e23a9662efc9c229c6a0060001b905090565b612f86613337565b612fbc576040517fd7e6bcf800000000000000000000000000000000000000000000000000000000815260040160405180910390fd5b565b612fc6612f7e565b6000612fd0612d6e565b90506001816000018190555050565b6000819050919050565b60008173ffffffffffffffffffffffffffffffffffffffff163b0361304557806040517f4c9c8ce300000000000000000000000000000000000000000000000000000000815260040161303c9190613c24565b60405180910390fd5b806130727f360894a13ba1a3210667c828492db98dca3e2076cc3735a920a3ca505d382bbc60001b612fdf565b60000160006101000a81548173ffffffffffffffffffffffffffffffffffffffff021916908373ffffffffffffffffffffffffffffffffffffffff16021790555050565b60606000808473ffffffffffffffffffffffffffffffffffffffff16846040516130e09190614ab3565b600060405180830381855af49150503d806000811461311b576040519150601f19603f3d011682016040523d82523d6000602084013e613120565b606091505b5091509150613130858383613357565b9250505092915050565b6000341115613175576040517fb398979f00000000000000000000000000000000000000000000000000000000815260040160405180910390fd5b565b600080600060418451036131bc5760008060006020870151925060408701519150606087015160001a90506131ae888285856133e6565b9550955095505050506131cc565b60006002855160001b9250925092505b9250925092565b600060038111156131e7576131e6613fa9565b5b8260038111156131fa576131f9613fa9565b5b0315613333576001600381111561321457613213613fa9565b5b82600381111561322757613226613fa9565b5b0361325e576040517ff645eedf00000000000000000000000000000000000000000000000000000000815260040160405180910390fd5b6002600381111561327257613271613fa9565b5b82600381111561328557613284613fa9565b5b036132ca578060001c6040517ffce698f70000000000000000000000000000000000000000000000000000000081526004016132c191906137e8565b60405180910390fd5b6003808111156132dd576132dc613fa9565b5b8260038111156132f0576132ef613fa9565b5b0361333257806040517fd78bce0c0000000000000000000000000000000000000000000000000000000081526004016133299190613742565b60405180910390fd5b5b5050565b6000613341612cbf565b60000160089054906101000a900460ff16905090565b60608261336c57613367826134da565b6133de565b60008251148015613394575060008473ffffffffffffffffffffffffffffffffffffffff163b145b156133d657836040517f9996b3150000000000000000000000000000000000000000000000000000000081526004016133cd9190613c24565b60405180910390fd5b8190506133df565b5b9392505050565b60008060007f7fffffffffffffffffffffffffffffff5d576e7357a4501ddfe92f46681b20a08460001c11156134265760006003859250925092506134d0565b60006001888888886040516000815260200160405260405161344b9493929190614ae6565b6020604051602081039080840390855afa15801561346d573d6000803e3d6000fd5b505050602060405103519050600073ffffffffffffffffffffffffffffffffffffffff168173ffffffffffffffffffffffffffffffffffffffff16036134c157600060016000801b935093509350506134d0565b8060008060001b935093509350505b9450945094915050565b6000815111156134ec57805160208201fd5b6040517fd6bda27500000000000000000000000000000000000000000000000000000000815260040160405180910390fd5b508054600082559060005260206000209081019061353c919061353f565b50565b5b80821115613558576000816000905550600101613540565b5090565b6000819050919050565b7f4e487b7100000000000000000000000000000000000000000000000000000000600052601160045260246000fd5b60006135a08261355c565b91506135ab8361355c565b92508282019050808211156135c3576135c2613566565b5b92915050565b6135d28161355c565b82525050565b60006040820190506135ed60008301856135c9565b6135fa60208301846135c9565b9392505050565b6000604051905090565b600080fd5b600080fd5b60007fffffffff0000000000000000000000000000000000000000000000000000000082169050919050565b61364a81613615565b811461365557600080fd5b50565b60008135905061366781613641565b92915050565b6000602082840312156136835761368261360b565b5b600061369184828501613658565b91505092915050565b60008115159050919050565b6136af8161369a565b82525050565b60006020820190506136ca60008301846136a6565b92915050565b6000819050919050565b6136e3816136d0565b81146136ee57600080fd5b50565b600081359050613700816136da565b92915050565b60006020828403121561371c5761371b61360b565b5b600061372a848285016136f1565b91505092915050565b61373c816136d0565b82525050565b60006020820190506137576000830184613733565b92915050565b600073ffffffffffffffffffffffffffffffffffffffff82169050919050565b60006137888261375d565b9050919050565b6137988161377d565b81146137a357600080fd5b50565b6000813590506137b58161378f565b92915050565b6000602082840312156137d1576137d061360b565b5b60006137df848285016137a6565b91505092915050565b60006020820190506137fd60008301846135c9565b92915050565b61380c8161355c565b811461381757600080fd5b50565b60008135905061382981613803565b92915050565b6000602082840312156138455761384461360b565b5b60006138538482850161381a565b91505092915050565b600080604083850312156138735761387261360b565b5b6000613881858286016136f1565b9250506020613892858286016137a6565b9150509250929050565b600080fd5b600080fd5b600080fd5b60008083601f8401126138c1576138c061389c565b5b8235905067ffffffffffffffff8111156138de576138dd6138a1565b5b6020830191508360018202830111156138fa576138f96138a6565b5b9250929050565b60008060006040848603121561391a5761391961360b565b5b600084013567ffffffffffffffff81111561393857613937613610565b5b613944868287016138ab565b93509350506020613957868287016137a6565b9150509250925092565b600080fd5b6000601f19601f8301169050919050565b7f4e487b7100000000000000000000000000000000000000000000000000000000600052604160045260246000fd5b6139af82613966565b810181811067ffffffffffffffff821117156139ce576139cd613977565b5b80604052505050565b60006139e1613601565b90506139ed82826139a6565b919050565b600067ffffffffffffffff821115613a0d57613a0c613977565b5b613a1682613966565b9050602081019050919050565b82818337600083830152505050565b6000613a45613a40846139f2565b6139d7565b905082815260208101848484011115613a6157613a60613961565b5b613a6c848285613a23565b509392505050565b600082601f830112613a8957613a8861389c565b5b8135613a99848260208601613a32565b91505092915050565b60008060408385031215613ab957613ab861360b565b5b6000613ac7858286016137a6565b925050602083013567ffffffffffffffff811115613ae857613ae7613610565b5b613af485828601613a74565b9150509250929050565b60008083601f840112613b1457613b1361389c565b5b8235905067ffffffffffffffff811115613b3157613b306138a1565b5b602083019150836001820283011115613b4d57613b4c6138a6565b5b9250929050565b60008060008060608587031215613b6e57613b6d61360b565b5b6000613b7c878288016136f1565b9450506020613b8d8782880161381a565b935050604085013567ffffffffffffffff811115613bae57613bad613610565b5b613bba87828801613afe565b925092505092959194509250565b60008060208385031215613bdf57613bde61360b565b5b600083013567ffffffffffffffff811115613bfd57613bfc613610565b5b613c09858286016138ab565b92509250509250929050565b613c1e8161377d565b82525050565b6000602082019050613c396000830184613c15565b92915050565b600081519050919050565b600082825260208201905092915050565b60005b83811015613c79578082015181840152602081019050613c5e565b60008484015250505050565b6000613c9082613c3f565b613c9a8185613c4a565b9350613caa818560208601613c5b565b613cb381613966565b840191505092915050565b60006020820190508181036000830152613cd88184613c85565b905092915050565b60008083601f840112613cf657613cf561389c565b5b8235905067ffffffffffffffff811115613d1357613d126138a1565b5b602083019150836020820283011115613d2f57613d2e6138a6565b5b9250929050565b60008083601f840112613d4c57613d4b61389c565b5b8235905067ffffffffffffffff811115613d6957613d686138a1565b5b602083019150836020820283011115613d8557613d846138a6565b5b9250929050565b60008060008060008060006080888a031215613dab57613daa61360b565b5b6000613db98a828b016136f1565b975050602088013567ffffffffffffffff811115613dda57613dd9613610565b5b613de68a828b016138ab565b9650965050604088013567ffffffffffffffff811115613e0957613e08613610565b5b613e158a828b01613ce0565b9450945050606088013567ffffffffffffffff811115613e3857613e37613610565b5b613e448a828b01613d36565b925092505092959891949750929550565b60008060008060608587031215613e6f57613e6e61360b565b5b6000613e7d878288016136f1565b945050602085013567ffffffffffffffff811115613e9e57613e9d613610565b5b613eaa878288016138ab565b93509350506040613ebd878288016137a6565b91505092959194509250565b600081519050919050565b600082825260208201905092915050565b6000819050602082019050919050565b613efe8161377d565b82525050565b6000613f108383613ef5565b60208301905092915050565b6000602082019050919050565b6000613f3482613ec9565b613f3e8185613ed4565b9350613f4983613ee5565b8060005b83811015613f7a578151613f618882613f04565b9750613f6c83613f1c565b925050600181019050613f4d565b5085935050505092915050565b60006020820190508181036000830152613fa18184613f29565b905092915050565b7f4e487b7100000000000000000000000000000000000000000000000000000000600052602160045260246000fd5b60038110613fe957613fe8613fa9565b5b50565b6000819050613ffa82613fd8565b919050565b600061400a82613fec565b9050919050565b61401a81613fff565b82525050565b60006020820190506140356000830184614011565b92915050565b7f416d6f756e74206d757374206265203e20300000000000000000000000000000600082015250565b6000614071601283613c4a565b915061407c8261403b565b602082019050919050565b600060208201905081810360008301526140a081614064565b9050919050565b60006140b28261355c565b91506140bd8361355c565b92508282039050818111156140d5576140d4613566565b5b92915050565b7f4c6f636b65642062657420616d6f756e74000000000000000000000000000000600082015250565b6000614111601183613c4a565b915061411c826140db565b602082019050919050565b6000602082019050818103600083015261414081614104565b9050919050565b7f496e73756666696369656e742062616c616e6365000000000000000000000000600082015250565b600061417d601483613c4a565b915061418882614147565b602082019050919050565b600060208201905081810360008301526141ac81614170565b9050919050565b600081905092915050565b50565b60006141ce6000836141b3565b91506141d9826141be565b600082019050919050565b60006141ef826141c1565b9150819050919050565b7f5769746864726177206661696c65640000000000000000000000000000000000600082015250565b600061422f600f83613c4a565b915061423a826141f9565b602082019050919050565b6000602082019050818103600083015261425e81614222565b9050919050565b600081905092915050565b600061427c8385614265565b9350614289838584613a23565b82840190509392505050565b60006142a2828486614270565b91508190509392505050565b7f547820616c726561647920757365640000000000000000000000000000000000600082015250565b60006142e4600f83613c4a565b91506142ef826142ae565b602082019050919050565b60006020820190508181036000830152614313816142d7565b9050919050565b7f496e76616c696420616d6f756e74000000000000000000000000000000000000600082015250565b6000614350600e83613c4a565b915061435b8261431a565b602082019050919050565b6000602082019050818103600083015261437f81614343565b9050919050565b60008160601b9050919050565b600061439e82614386565b9050919050565b60006143b082614393565b9050919050565b6143c86143c38261377d565b6143a5565b82525050565b6000819050919050565b6143e96143e4826136d0565b6143ce565b82525050565b6000819050919050565b61440a6144058261355c565b6143ef565b82525050565b600061441c82876143b7565b60148201915061442c82866143d8565b60208201915061443c82856143f9565b60208201915061444c82846143b7565b60148201915081905095945050505050565b7f496e76616c6964207369676e6174757265000000000000000000000000000000600082015250565b6000614494601183613c4a565b915061449f8261445e565b602082019050919050565b600060208201905081810360008301526144c381614487565b9050919050565b7f5472616e73666572206661696c65640000000000000000000000000000000000600082015250565b6000614500600f83613c4a565b915061450b826144ca565b602082019050919050565b6000602082019050818103600083015261452f816144f3565b9050919050565b7f4e6f7420656e6f75676820706c61796572730000000000000000000000000000600082015250565b600061456c601283613c4a565b915061457782614536565b602082019050919050565b6000602082019050818103600083015261459b8161455f565b9050919050565b7f506c617965727320616e6420616d6f756e7473206c656e677468206d69736d6160008201527f7463680000000000000000000000000000000000000000000000000000000000602082015250565b60006145fe602383613c4a565b9150614609826145a2565b604082019050919050565b6000602082019050818103600083015261462d816145f1565b9050919050565b7f47616d6520616374697665206f7220656e646564000000000000000000000000600082015250565b600061466a601483613c4a565b915061467582614634565b602082019050919050565b600060208201905081810360008301526146998161465d565b9050919050565b7f4e487b7100000000000000000000000000000000000000000000000000000000600052603260045260246000fd5b7f496e76616c696420626574000000000000000000000000000000000000000000600082015250565b6000614705600b83613c4a565b9150614710826146cf565b602082019050919050565b60006020820190508181036000830152614734816146f8565b9050919050565b60006147478385613c4a565b9350614754838584613a23565b61475d83613966565b840190509392505050565b6000604082019050818103600083015261478381858761473b565b905061479260208301846135c9565b949350505050565b6000819050919050565b600067ffffffffffffffff82169050919050565b6000819050919050565b60006147dd6147d86147d38461479a565b6147b8565b6147a4565b9050919050565b6147ed816147c2565b82525050565b600060208201905061480860008301846147e4565b92915050565b7f47616d65206e6f74206163746976650000000000000000000000000000000000600082015250565b6000614844600f83613c4a565b915061484f8261480e565b602082019050919050565b6000602082019050818103600083015261487381614837565b9050919050565b7f57696e6e657220646964206e6f74207061727469636970617465000000000000600082015250565b60006148b0601a83613c4a565b91506148bb8261487a565b602082019050919050565b600060208201905081810360008301526148df816148a3565b9050919050565b7f4c6f7365722068617320696e73756666696369656e742062616c616e63650000600082015250565b600061491c601e83613c4a565b9150614927826148e6565b602082019050919050565b6000602082019050818103600083015261494b8161490f565b9050919050565b6000608082019050818103600083015261496d81878961473b565b905061497c6020830186613c15565b61498960408301856135c9565b61499660608301846135c9565b9695505050505050565b7f4d7573742073656e6420736f6d65206e617469766520746f6b656e0000000000600082015250565b60006149d6601b83613c4a565b91506149e1826149a0565b602082019050919050565b60006020820190508181036000830152614a05816149c9565b9050919050565b600081519050614a1b816136da565b92915050565b600060208284031215614a3757614a3661360b565b5b6000614a4584828501614a0c565b91505092915050565b6000604082019050614a636000830185613c15565b614a706020830184613733565b9392505050565b600081519050919050565b6000614a8d82614a77565b614a9781856141b3565b9350614aa7818560208601613c5b565b80840191505092915050565b6000614abf8284614a82565b915081905092915050565b600060ff82169050919050565b614ae081614aca565b82525050565b6000608082019050614afb6000830187613733565b614b086020830186614ad7565b614b156040830185613733565b614b226060830184613733565b9594505050505056fea2646970667358221220b8e33395002ae283690a1ae13686da3ce2021402b897b2a4d61167d849342bf564736f6c634300081c0033",
  "linkReferences": {},
  "deployedLinkReferences": {}
}