{
  "_format": "hh-sol-artifact-1",
  "contractName": "BestGuessMaster",
  "sourceName": "contracts/BestGuessMaster.sol",
  "abi": [
    {
      "inputs": [],
      "name": "AccessControlBadConfirmation",
      "type": "error"
    },
    {
      "inputs": [
        {
          "internalType": "address",
          "name": "account",
          "type": "address"
        },
        {
          "internalType": "bytes32",
          "name": "neededRole",
          "type": "bytes32"
        }
      ],
      "name": "AccessControlUnauthorizedAccount",
      "type": "error"
    },
    {
      "inputs": [
        {
          "internalType": "address",
          "name": "target",
          "type": "address"
        }
      ],
      "name": "AddressEmptyCode",
      "type": "error"
    },
    {
      "inputs": [],
      "name": "ECDSAInvalidSignature",
      "type": "error"
    },
    {
      "inputs": [
        {
          "internalType": "uint256",
          "name": "length",
          "type": "uint256"
        }
      ],
      "name": "ECDSAInvalidSignatureLength",
      "type": "error"
    },
    {
      "inputs": [
        {
          "internalType": "bytes32",
          "name": "s",
          "type": "bytes32"
        }
      ],
      "name": "ECDSAInvalidSignatureS",
      "type": "error"
    },
    {
      "inputs": [
        {
          "internalType": "address",
          "name": "implementation",
          "type": "address"
        }
      ],
      "name": "ERC1967InvalidImplementation",
      "type": "error"
    },
    {
      "inputs": [],
      "name": "ERC1967NonPayable",
      "type": "error"
    },
    {
      "inputs": [],
      "name": "EnforcedPause",
      "type": "error"
    },
    {
      "inputs": [],
      "name": "ExpectedPause",
      "type": "error"
    },
    {
      "inputs": [],
      "name": "FailedCall",
      "type": "error"
    },
    {
      "inputs": [],
      "name": "InvalidInitialization",
      "type": "error"
    },
    {
      "inputs": [],
      "name": "NotInitializing",
      "type": "error"
    },
    {
      "inputs": [],
      "name": "ReentrancyGuardReentrantCall",
      "type": "error"
    },
    {
      "inputs": [],
      "name": "UUPSUnauthorizedCallContext",
      "type": "error"
    },
    {
      "inputs": [
        {
          "internalType": "bytes32",
          "name": "slot",
          "type": "bytes32"
        }
      ],
      "name": "UUPSUnsupportedProxiableUUID",
      "type": "error"
    },
    {
      "anonymous": false,
      "inputs": [
        {
          "indexed": true,
          "internalType": "address",
          "name": "user",
          "type": "address"
        },
        {
          "indexed": false,
          "internalType": "uint256",
          "name": "amount",
          "type": "uint256"
        },
        {
          "indexed": false,
          "internalType": "uint256",
          "name": "timestamp",
          "type": "uint256"
        }
      ],
      "name": "BetCleared",
      "type": "event"
    },
    {
      "anonymous": false,
      "inputs": [
        {
          "indexed": true,
          "internalType": "bytes32",
          "name": "itx",
          "type": "bytes32"
        },
        {
          "indexed": false,
          "internalType": "string",
          "name": "gameId",
          "type": "string"
        },
        {
          "indexed": false,
          "internalType": "address[]",
          "name": "players",
          "type": "address[]"
        },
        {
          "indexed": false,
          "internalType": "uint256[]",
          "name": "playerBets",
          "type": "uint256[]"
        },
        {
          "indexed": false,
          "internalType": "uint256",
          "name": "timestamp",
          "type": "uint256"
        }
      ],
      "name": "BetGame",
      "type": "event"
    },
    {
      "anonymous": false,
      "inputs": [
        {
          "indexed": true,
          "internalType": "address",
          "name": "user",
          "type": "address"
        },
        {
          "indexed": false,
          "internalType": "uint256",
          "name": "amount",
          "type": "uint256"
        },
        {
          "indexed": false,
          "internalType": "uint256",
          "name": "timestamp",
          "type": "uint256"
        }
      ],
      "name": "Deposited",
      "type": "event"
    },
    {
      "anonymous": false,
      "inputs": [
        {
          "indexed": true,
          "internalType": "bytes32",
          "name": "itx",
          "type": "bytes32"
        },
        {
          "indexed": false,
          "internalType": "string",
          "name": "gameId",
          "type": "string"
        },
        {
          "indexed": false,
          "internalType": "address",
          "name": "winner",
          "type": "address"
        },
        {
          "indexed": false,
          "internalType": "uint256",
          "name": "amount",
          "type": "uint256"
        },
        {
          "indexed": false,
          "internalType": "uint256",
          "name": "timestamp",
          "type": "uint256"
        }
      ],
      "name": "GameEnded",
      "type": "event"
    },
    {
      "anonymous": false,
      "inputs": [
        {
          "indexed": false,
          "internalType": "uint64",
          "name": "version",
          "type": "uint64"
        }
      ],
      "name": "Initialized",
      "type": "event"
    },
    {
      "anonymous": false,
      "inputs": [
        {
          "indexed": false,
          "internalType": "address",
          "name": "account",
          "type": "address"
        }
      ],
      "name": "Paused",
      "type": "event"
    },
    {
      "anonymous": false,
      "inputs": [
        {
          "indexed": true,
          "internalType": "bytes32",
          "name": "role",
          "type": "bytes32"
        },
        {
          "indexed": true,
          "internalType": "bytes32",
          "name": "previousAdminRole",
          "type": "bytes32"
        },
        {
          "indexed": true,
          "internalType": "bytes32",
          "name": "newAdminRole",
          "type": "bytes32"
        }
      ],
      "name": "RoleAdminChanged",
      "type": "event"
    },
    {
      "anonymous": false,
      "inputs": [
        {
          "indexed": true,
          "internalType": "bytes32",
          "name": "role",
          "type": "bytes32"
        },
        {
          "indexed": true,
          "internalType": "address",
          "name": "account",
          "type": "address"
        },
        {
          "indexed": true,
          "internalType": "address",
          "name": "sender",
          "type": "address"
        }
      ],
      "name": "RoleGranted",
      "type": "event"
    },
    {
      "anonymous": false,
      "inputs": [
        {
          "indexed": true,
          "internalType": "bytes32",
          "name": "role",
          "type": "bytes32"
        },
        {
          "indexed": true,
          "internalType": "address",
          "name": "account",
          "type": "address"
        },
        {
          "indexed": true,
          "internalType": "address",
          "name": "sender",
          "type": "address"
        }
      ],
      "name": "RoleRevoked",
      "type": "event"
    },
    {
      "anonymous": false,
      "inputs": [
        {
          "indexed": false,
          "internalType": "address",
          "name": "account",
          "type": "address"
        }
      ],
      "name": "Unpaused",
      "type": "event"
    },
    {
      "anonymous": false,
      "inputs": [
        {
          "indexed": true,
          "internalType": "address",
          "name": "implementation",
          "type": "address"
        }
      ],
      "name": "Upgraded",
      "type": "event"
    },
    {
      "anonymous": false,
      "inputs": [
        {
          "indexed": true,
          "internalType": "address",
          "name": "user",
          "type": "address"
        },
        {
          "indexed": false,
          "internalType": "uint256",
          "name": "amount",
          "type": "uint256"
        },
        {
          "indexed": false,
          "internalType": "uint256",
          "name": "timestamp",
          "type": "uint256"
        }
      ],
      "name": "Withdrawn",
      "type": "event"
    },
    {
      "anonymous": false,
      "inputs": [
        {
          "indexed": true,
          "internalType": "address",
          "name": "user",
          "type": "address"
        },
        {
          "indexed": true,
          "internalType": "bytes32",
          "name": "itx",
          "type": "bytes32"
        },
        {
          "indexed": false,
          "internalType": "uint256",
          "name": "amount",
          "type": "uint256"
        },
        {
          "indexed": false,
          "internalType": "uint256",
          "name": "timestamp",
          "type": "uint256"
        }
      ],
      "name": "WithdrawnWithSignature",
      "type": "event"
    },
    {
      "inputs": [],
      "name": "DEFAULT_ADMIN_ROLE",
      "outputs": [
        {
          "internalType": "bytes32",
          "name": "",
          "type": "bytes32"
        }
      ],
      "stateMutability": "view",
      "type": "function"
    },
    {
      "inputs": [],
      "name": "OPERATION_ROLE",
      "outputs": [
        {
          "internalType": "bytes32",
          "name": "",
          "type": "bytes32"
        }
      ],
      "stateMutability": "view",
      "type": "function"
    },
    {
      "inputs": [],
      "name": "OWNER_ROLE",
      "outputs": [
        {
          "internalType": "bytes32",
          "name": "",
          "type": "bytes32"
        }
      ],
      "stateMutability": "view",
      "type": "function"
    },
    {
      "inputs": [],
      "name": "SIGNER_ROLE",
      "outputs": [
        {
          "internalType": "bytes32",
          "name": "",
          "type": "bytes32"
        }
      ],
      "stateMutability": "view",
      "type": "function"
    },
    {
      "inputs": [],
      "name": "UPGRADE_INTERFACE_VERSION",
      "outputs": [
        {
          "internalType": "string",
          "name": "",
          "type": "string"
        }
      ],
      "stateMutability": "view",
      "type": "function"
    },
    {
      "inputs": [
        {
          "internalType": "address",
          "name": "",
          "type": "address"
        }
      ],
      "name": "balances",
      "outputs": [
        {
          "internalType": "uint256",
          "name": "",
          "type": "uint256"
        }
      ],
      "stateMutability": "view",
      "type": "function"
    },
    {
      "inputs": [
        {
          "internalType": "bytes32",
          "name": "itx",
          "type": "bytes32"
        },
        {
          "internalType": "string",
          "name": "gameId",
          "type": "string"
        },
        {
          "internalType": "address[]",
          "name": "players",
          "type": "address[]"
        },
        {
          "internalType": "uint256[]",
          "name": "playerBets",
          "type": "uint256[]"
        }
      ],
      "name": "betGame",
      "outputs": [],
      "stateMutability": "nonpayable",
      "type": "function"
    },
    {
      "inputs": [
        {
          "internalType": "address",
          "name": "user",
          "type": "address"
        }
      ],
      "name": "clearBet",
      "outputs": [],
      "stateMutability": "nonpayable",
      "type": "function"
    },
    {
      "inputs": [],
      "name": "deposit",
      "outputs": [],
      "stateMutability": "payable",
      "type": "function"
    },
    {
      "inputs": [
        {
          "internalType": "bytes32",
          "name": "itx",
          "type": "bytes32"
        },
        {
          "internalType": "string",
          "name": "gameId",
          "type": "string"
        },
        {
          "internalType": "address",
          "name": "winner",
          "type": "address"
        }
      ],
      "name": "endGame",
      "outputs": [],
      "stateMutability": "nonpayable",
      "type": "function"
    },
    {
      "inputs": [
        {
          "internalType": "address",
          "name": "user",
          "type": "address"
        }
      ],
      "name": "getAvailableToWithdraw",
      "outputs": [
        {
          "internalType": "uint256",
          "name": "",
          "type": "uint256"
        }
      ],
      "stateMutability": "view",
      "type": "function"
    },
    {
      "inputs": [
        {
          "internalType": "address",
          "name": "user",
          "type": "address"
        }
      ],
      "name": "getBalance",
      "outputs": [
        {
          "internalType": "uint256",
          "name": "",
          "type": "uint256"
        }
      ],
      "stateMutability": "view",
      "type": "function"
    },
    {
      "inputs": [
        {
          "internalType": "string",
          "name": "gameId",
          "type": "string"
        }
      ],
      "name": "getGamePlayers",
      "outputs": [
        {
          "internalType": "address[]",
          "name": "",
          "type": "address[]"
        }
      ],
      "stateMutability": "view",
      "type": "function"
    },
    {
      "inputs": [
        {
          "internalType": "string",
          "name": "gameId",
          "type": "string"
        }
      ],
      "name": "getGameStatus",
      "outputs": [
        {
          "internalType": "enum BestGuessMaster.GameStatus",
          "name": "",
          "type": "uint8"
        }
      ],
      "stateMutability": "view",
      "type": "function"
    },
    {
      "inputs": [
        {
          "internalType": "string",
          "name": "gameId",
          "type": "string"
        }
      ],
      "name": "getGameWinner",
      "outputs": [
        {
          "internalType": "address",
          "name": "",
          "type": "address"
        }
      ],
      "stateMutability": "view",
      "type": "function"
    },
    {
      "inputs": [
        {
          "internalType": "string",
          "name": "gameId",
          "type": "string"
        },
        {
          "internalType": "address",
          "name": "player",
          "type": "address"
        }
      ],
      "name": "getPlayerBet",
      "outputs": [
        {
          "internalType": "uint256",
          "name": "",
          "type": "uint256"
        }
      ],
      "stateMutability": "view",
      "type": "function"
    },
    {
      "inputs": [
        {
          "internalType": "bytes32",
          "name": "role",
          "type": "bytes32"
        }
      ],
      "name": "getRoleAdmin",
      "outputs": [
        {
          "internalType": "bytes32",
          "name": "",
          "type": "bytes32"
        }
      ],
      "stateMutability": "view",
      "type": "function"
    },
    {
      "inputs": [
        {
          "internalType": "bytes32",
          "name": "role",
          "type": "bytes32"
        },
        {
          "internalType": "address",
          "name": "account",
          "type": "address"
        }
      ],
      "name": "grantRole",
      "outputs": [],
      "stateMutability": "nonpayable",
      "type": "function"
    },
    {
      "inputs": [
        {
          "internalType": "bytes32",
          "name": "role",
          "type": "bytes32"
        },
        {
          "internalType": "address",
          "name": "account",
          "type": "address"
        }
      ],
      "name": "hasRole",
      "outputs": [
        {
          "internalType": "bool",
          "name": "",
          "type": "bool"
        }
      ],
      "stateMutability": "view",
      "type": "function"
    },
    {
      "inputs": [
        {
          "internalType": "address",
          "name": "owner",
          "type": "address"
        }
      ],
      "name": "initialize",
      "outputs": [],
      "stateMutability": "nonpayable",
      "type": "function"
    },
    {
      "inputs": [
        {
          "internalType": "bytes32",
          "name": "txId",
          "type": "bytes32"
        }
      ],
      "name": "isTxUsed",
      "outputs": [
        {
          "internalType": "bool",
          "name": "",
          "type": "bool"
        }
      ],
      "stateMutability": "view",
      "type": "function"
    },
    {
      "inputs": [],
      "name": "pause",
      "outputs": [],
      "stateMutability": "nonpayable",
      "type": "function"
    },
    {
      "inputs": [],
      "name": "paused",
      "outputs": [
        {
          "internalType": "bool",
          "name": "",
          "type": "bool"
        }
      ],
      "stateMutability": "view",
      "type": "function"
    },
    {
      "inputs": [],
      "name": "proxiableUUID",
      "outputs": [
        {
          "internalType": "bytes32",
          "name": "",
          "type": "bytes32"
        }
      ],
      "stateMutability": "view",
      "type": "function"
    },
    {
      "inputs": [
        {
          "internalType": "bytes32",
          "name": "role",
          "type": "bytes32"
        },
        {
          "internalType": "address",
          "name": "callerConfirmation",
          "type": "address"
        }
      ],
      "name": "renounceRole",
      "outputs": [],
      "stateMutability": "nonpayable",
      "type": "function"
    },
    {
      "inputs": [
        {
          "internalType": "bytes32",
          "name": "role",
          "type": "bytes32"
        },
        {
          "internalType": "address",
          "name": "account",
          "type": "address"
        }
      ],
      "name": "revokeRole",
      "outputs": [],
      "stateMutability": "nonpayable",
      "type": "function"
    },
    {
      "inputs": [
        {
          "internalType": "bytes4",
          "name": "interfaceId",
          "type": "bytes4"
        }
      ],
      "name": "supportsInterface",
      "outputs": [
        {
          "internalType": "bool",
          "name": "",
          "type": "bool"
        }
      ],
      "stateMutability": "view",
      "type": "function"
    },
    {
      "inputs": [],
      "name": "unpause",
      "outputs": [],
      "stateMutability": "nonpayable",
      "type": "function"
    },
    {
      "inputs": [
        {
          "internalType": "address",
          "name": "newImplementation",
          "type": "address"
        },
        {
          "internalType": "bytes",
          "name": "data",
          "type": "bytes"
        }
      ],
      "name": "upgradeToAndCall",
      "outputs": [],
      "stateMutability": "payable",
      "type": "function"
    },
    {
      "inputs": [
        {
          "internalType": "uint256",
          "name": "amount",
          "type": "uint256"
        }
      ],
      "name": "withdraw",
      "outputs": [],
      "stateMutability": "nonpayable",
      "type": "function"
    },
    {
      "inputs": [
        {
          "internalType": "bytes32",
          "name": "itx",
          "type": "bytes32"
        },
        {
          "internalType": "uint256",
          "name": "amount",
          "type": "uint256"
        },
        {
          "internalType": "bytes",
          "name": "signature",
          "type": "bytes"
        }
      ],
      "name": "withdrawWithSignature",
      "outputs": [],
      "stateMutability": "nonpayable",
      "type": "function"
    },
    {
      "stateMutability": "payable",
      "type": "receive"
    }
  ],
  "bytecode": "0x60a06040523073ffffffffffffffffffffffffffffffffffffffff1660809073ffffffffffffffffffffffffffffffffffffffff16815250348015604257600080fd5b50608051614be961006c60003960008181612861015281816128b60152612a940152614be96000f3fe6080604052600436106101dc5760003560e01c80638545d8df11610102578063cbf20cba11610095578063e58378bb11610064578063e58378bb14610745578063e6ca208414610770578063f111cc5c146107ad578063f8b2cb4f146107ea57610291565b8063cbf20cba146106ac578063d0e30db0146106d5578063d547741f146106df578063e4c842091461070857610291565b8063a217fddf116100d1578063a217fddf14610604578063ad3cb1cc1461062f578063c06407a21461065a578063c4d66de81461068357610291565b80638545d8df1461053457806391d148541461055f57806397f7caf51461059c578063a1ebf35d146105d957610291565b8063457d13ca1161017a5780635c975abb116101495780635c975abb1461048c57806375ff4590146104b7578063824a6290146104e05780638456cb591461051d57610291565b8063457d13ca146103df5780634f1ef2861461041c57806352d1902d1461043857806358899c711461046357610291565b80632e1a7d4d116101b65780632e1a7d4d1461034d5780632f2ff15d1461037657806336568abe1461039f5780633f4ba83a146103c857610291565b806301ffc9a714610296578063248a9ca3146102d357806327e235e31461031057610291565b36610291576101e9610827565b34600160003373ffffffffffffffffffffffffffffffffffffffff1673ffffffffffffffffffffffffffffffffffffffff168152602001908152602001600020600082825461023891906134e9565b925050819055503373ffffffffffffffffffffffffffffffffffffffff167f73a19dd210f1a7f902193214c0ee91dd35ee5b4d920cba8d519eca65a7b488ca344260405161028792919061352c565b60405180910390a2005b600080fd5b3480156102a257600080fd5b506102bd60048036038101906102b891906135c1565b610868565b6040516102ca9190613609565b60405180910390f35b3480156102df57600080fd5b506102fa60048036038101906102f5919061365a565b6108e2565b6040516103079190613696565b60405180910390f35b34801561031c57600080fd5b506103376004803603810190610332919061370f565b610910565b604051610344919061373c565b60405180910390f35b34801561035957600080fd5b50610374600480360381019061036f9190613783565b610928565b005b34801561038257600080fd5b5061039d600480360381019061039891906137b0565b610c27565b005b3480156103ab57600080fd5b506103c660048036038101906103c191906137b0565b610c49565b005b3480156103d457600080fd5b506103dd610cc4565b005b3480156103eb57600080fd5b5061040660048036038101906104019190613855565b610cf9565b604051610413919061373c565b60405180910390f35b610436600480360381019061043191906139f6565b610d65565b005b34801561044457600080fd5b5061044d610d84565b60405161045a9190613696565b60405180910390f35b34801561046f57600080fd5b5061048a60048036038101906104859190613aa8565b610db7565b005b34801561049857600080fd5b506104a16111a2565b6040516104ae9190613609565b60405180910390f35b3480156104c357600080fd5b506104de60048036038101906104d9919061370f565b6111c7565b005b3480156104ec57600080fd5b506105076004803603810190610502919061370f565b6112cf565b604051610514919061373c565b60405180910390f35b34801561052957600080fd5b506105326113f2565b005b34801561054057600080fd5b50610549611427565b6040516105569190613696565b60405180910390f35b34801561056b57600080fd5b50610586600480360381019061058191906137b0565b61144b565b6040516105939190613609565b60405180910390f35b3480156105a857600080fd5b506105c360048036038101906105be9190613b1c565b6114c4565b6040516105d09190613b78565b60405180910390f35b3480156105e557600080fd5b506105ee611512565b6040516105fb9190613696565b60405180910390f35b34801561061057600080fd5b50610619611536565b6040516106269190613696565b60405180910390f35b34801561063b57600080fd5b5061064461153d565b6040516106519190613c12565b60405180910390f35b34801561066657600080fd5b50610681600480360381019061067c9190613ce0565b611576565b005b34801561068f57600080fd5b506106aa60048036038101906106a5919061370f565b611ab4565b005b3480156106b857600080fd5b506106d360048036038101906106ce9190613da9565b611d43565b005b6106dd61223e565b005b3480156106eb57600080fd5b50610706600480360381019061070191906137b0565b612331565b005b34801561071457600080fd5b5061072f600480360381019061072a9190613b1c565b612353565b60405161073c9190613edb565b60405180910390f35b34801561075157600080fd5b5061075a612405565b6040516107679190613696565b60405180910390f35b34801561077c57600080fd5b506107976004803603810190610792919061365a565b612429565b6040516107a49190613609565b60405180910390f35b3480156107b957600080fd5b506107d460048036038101906107cf9190613b1c565b612448565b6040516107e19190613f74565b60405180910390f35b3480156107f657600080fd5b50610811600480360381019061080c919061370f565b612483565b60405161081e919061373c565b60405180910390f35b61082f6111a2565b15610866576040517fd93c066500000000000000000000000000000000000000000000000000000000815260040160405180910390fd5b565b60007f7965db0b000000000000000000000000000000000000000000000000000000007bffffffffffffffffffffffffffffffffffffffffffffffffffffffff1916827bffffffffffffffffffffffffffffffffffffffffffffffffffffffff191614806108db57506108da826124cc565b5b9050919050565b6000806108ed612536565b905080600001600084815260200190815260200160002060010154915050919050565b60016020528060005260406000206000915090505481565b610930610827565b61093861255e565b6000811161097b576040517f08c379a000000000000000000000000000000000000000000000000000000000815260040161097290613fdb565b60405180910390fd5b600260003373ffffffffffffffffffffffffffffffffffffffff1673ffffffffffffffffffffffffffffffffffffffff1681526020019081526020016000205481600160003373ffffffffffffffffffffffffffffffffffffffff1673ffffffffffffffffffffffffffffffffffffffff16815260200190815260200160002054610a069190613ffb565b1015610a47576040517f08c379a0000000000000000000000000000000000000000000000000000000008152600401610a3e9061407b565b60405180910390fd5b80600160003373ffffffffffffffffffffffffffffffffffffffff1673ffffffffffffffffffffffffffffffffffffffff168152602001908152602001600020541015610ac9576040517f08c379a0000000000000000000000000000000000000000000000000000000008152600401610ac0906140e7565b60405180910390fd5b80600160003373ffffffffffffffffffffffffffffffffffffffff1673ffffffffffffffffffffffffffffffffffffffff1681526020019081526020016000206000828254610b189190613ffb565b9250508190555060003373ffffffffffffffffffffffffffffffffffffffff1682604051610b4590614138565b60006040518083038185875af1925050503d8060008114610b82576040519150601f19603f3d011682016040523d82523d6000602084013e610b87565b606091505b5050905080610bcb576040517f08c379a0000000000000000000000000000000000000000000000000000000008152600401610bc290614199565b60405180910390fd5b3373ffffffffffffffffffffffffffffffffffffffff167f92ccf450a286a957af52509bc1c9939d1a6a481783e142e41e2499f0bb66ebc68342604051610c1392919061352c565b60405180910390a250610c246125b5565b50565b610c30826108e2565b610c39816125ce565b610c4383836125e2565b50505050565b610c516126e3565b73ffffffffffffffffffffffffffffffffffffffff168173ffffffffffffffffffffffffffffffffffffffff1614610cb5576040517f6697b23200000000000000000000000000000000000000000000000000000000815260040160405180910390fd5b610cbf82826126eb565b505050565b7fb19546dff01e856fb3f010c267a7b1c60363cf8a4664e21cc89c26224620214e610cee816125ce565b610cf66127ed565b50565b600060038484604051610d0d9291906141e9565b908152602001604051809103902060010160008373ffffffffffffffffffffffffffffffffffffffff1673ffffffffffffffffffffffffffffffffffffffff1681526020019081526020016000205490509392505050565b610d6d61285f565b610d7682612945565b610d808282612973565b5050565b6000610d8e612a92565b7f360894a13ba1a3210667c828492db98dca3e2076cc3735a920a3ca505d382bbc60001b905090565b610dbf61255e565b610dc7610827565b60008060008681526020019081526020016000205414610e1c576040517f08c379a0000000000000000000000000000000000000000000000000000000008152600401610e139061424e565b60405180910390fd5b60008311610e5f576040517f08c379a0000000000000000000000000000000000000000000000000000000008152600401610e56906142ba565b60405180910390fd5b600033858530604051602001610e789493929190614364565b604051602081830303815290604052805190602001209050610e9b818484612b19565b610eda576040517f08c379a0000000000000000000000000000000000000000000000000000000008152600401610ed1906143fe565b60405180910390fd5b4260008087815260200190815260200160002081905550600260003373ffffffffffffffffffffffffffffffffffffffff1673ffffffffffffffffffffffffffffffffffffffff1681526020019081526020016000205484600160003373ffffffffffffffffffffffffffffffffffffffff1673ffffffffffffffffffffffffffffffffffffffff16815260200190815260200160002054610f7c9190613ffb565b1015610fbd576040517f08c379a0000000000000000000000000000000000000000000000000000000008152600401610fb49061407b565b60405180910390fd5b83600160003373ffffffffffffffffffffffffffffffffffffffff1673ffffffffffffffffffffffffffffffffffffffff16815260200190815260200160002054101561103f576040517f08c379a0000000000000000000000000000000000000000000000000000000008152600401611036906140e7565b60405180910390fd5b83600160003373ffffffffffffffffffffffffffffffffffffffff1673ffffffffffffffffffffffffffffffffffffffff168152602001908152602001600020600082825461108e9190613ffb565b9250508190555060003373ffffffffffffffffffffffffffffffffffffffff16856040516110bb90614138565b60006040518083038185875af1925050503d80600081146110f8576040519150601f19603f3d011682016040523d82523d6000602084013e6110fd565b606091505b5050905080611141576040517f08c379a00000000000000000000000000000000000000000000000000000000081526004016111389061446a565b60405180910390fd5b853373ffffffffffffffffffffffffffffffffffffffff167f64f6745c86b02c19d4fa98167e77fe876b8ef8596fc5ef31a36fddfcc2f63fb2874260405161118a92919061352c565b60405180910390a3505061119c6125b5565b50505050565b6000806111ad612bb7565b90508060000160009054906101000a900460ff1691505090565b7f20296b01d0b6bd176f0c1e29644934c0047abf080dae43609a1bbc09e39bafdb6111f1816125ce565b6000600260008473ffffffffffffffffffffffffffffffffffffffff1673ffffffffffffffffffffffffffffffffffffffff1681526020019081526020016000205490506000600260008573ffffffffffffffffffffffffffffffffffffffff1673ffffffffffffffffffffffffffffffffffffffff168152602001908152602001600020819055508273ffffffffffffffffffffffffffffffffffffffff167f7ed2b3a68a9cba398f88465867a23d2b48e4050132ee94e79227107391aee34c82426040516112c292919061352c565b60405180910390a2505050565b6000600260008373ffffffffffffffffffffffffffffffffffffffff1673ffffffffffffffffffffffffffffffffffffffff16815260200190815260200160002054600160008473ffffffffffffffffffffffffffffffffffffffff1673ffffffffffffffffffffffffffffffffffffffff1681526020019081526020016000205411156113e857600260008373ffffffffffffffffffffffffffffffffffffffff1673ffffffffffffffffffffffffffffffffffffffff16815260200190815260200160002054600160008473ffffffffffffffffffffffffffffffffffffffff1673ffffffffffffffffffffffffffffffffffffffff168152602001908152602001600020546113e19190613ffb565b90506113ed565b600090505b919050565b7fb19546dff01e856fb3f010c267a7b1c60363cf8a4664e21cc89c26224620214e61141c816125ce565b611424612bdf565b50565b7f20296b01d0b6bd176f0c1e29644934c0047abf080dae43609a1bbc09e39bafdb81565b600080611456612536565b905080600001600085815260200190815260200160002060000160008473ffffffffffffffffffffffffffffffffffffffff1673ffffffffffffffffffffffffffffffffffffffff16815260200190815260200160002060009054906101000a900460ff1691505092915050565b6000600383836040516114d89291906141e9565b908152602001604051809103902060020160009054906101000a900473ffffffffffffffffffffffffffffffffffffffff16905092915050565b7fe2f4eaae4a9751e85a3e4a7b9587827a877f29914755229b07a7b2da98285f7081565b6000801b81565b6040518060400160405280600581526020017f352e302e3000000000000000000000000000000000000000000000000000000081525081565b7f20296b01d0b6bd176f0c1e29644934c0047abf080dae43609a1bbc09e39bafdb6115a0816125ce565b6115a861255e565b6115b0610827565b60008060008a81526020019081526020016000205414611605576040517f08c379a00000000000000000000000000000000000000000000000000000000081526004016115fc9061424e565b60405180910390fd5b6001858590501161164b576040517f08c379a0000000000000000000000000000000000000000000000000000000008152600401611642906144d6565b60405180910390fd5b828290508585905014611693576040517f08c379a000000000000000000000000000000000000000000000000000000000815260040161168a90614568565b60405180910390fd5b6000600388886040516116a79291906141e9565b90815260200160405180910390209050600060028111156116cb576116ca613efd565b5b8160040160009054906101000a900460ff1660028111156116ef576116ee613efd565b5b1461172f576040517f08c379a0000000000000000000000000000000000000000000000000000000008152600401611726906145d4565b60405180910390fd5b60005b86869050811015611a45576000878783818110611752576117516145f4565b5b9050602002016020810190611767919061370f565b9050600086868481811061177e5761177d6145f4565b5b905060200201359050600081116117ca576040517f08c379a00000000000000000000000000000000000000000000000000000000081526004016117c19061466f565b60405180910390fd5b80600260008473ffffffffffffffffffffffffffffffffffffffff1673ffffffffffffffffffffffffffffffffffffffff1681526020019081526020016000205461181591906134e9565b600160008473ffffffffffffffffffffffffffffffffffffffff1673ffffffffffffffffffffffffffffffffffffffff168152602001908152602001600020541015611896576040517f08c379a000000000000000000000000000000000000000000000000000000000815260040161188d906140e7565b60405180910390fd5b60008460010160008473ffffffffffffffffffffffffffffffffffffffff1673ffffffffffffffffffffffffffffffffffffffff16815260200190815260200160002054036119455783600001829080600181540180825580915050600190039060005260206000200160009091909190916101000a81548173ffffffffffffffffffffffffffffffffffffffff021916908373ffffffffffffffffffffffffffffffffffffffff1602179055505b808460010160008473ffffffffffffffffffffffffffffffffffffffff1673ffffffffffffffffffffffffffffffffffffffff168152602001908152602001600020600082825461199691906134e9565b9250508190555060018460040160006101000a81548160ff021916908360028111156119c5576119c4613efd565b5b021790555060008460030154036119e0574284600301819055505b80600260008473ffffffffffffffffffffffffffffffffffffffff1673ffffffffffffffffffffffffffffffffffffffff1681526020019081526020016000206000828254611a2f91906134e9565b9250508190555050508080600101915050611732565b50426000808b815260200190815260200160002081905550887f51187b9c95484db9e6098928396ce3b100c2c508f2ada0d8760c2bb420bad4ca89898989898942604051611a9997969594939291906147c2565b60405180910390a250611aaa6125b5565b5050505050505050565b6000611abe612c51565b905060008160000160089054906101000a900460ff1615905060008260000160009054906101000a900467ffffffffffffffff1690506000808267ffffffffffffffff16148015611b0c5750825b9050600060018367ffffffffffffffff16148015611b41575060003073ffffffffffffffffffffffffffffffffffffffff163b145b905081158015611b4f575080155b15611b86576040517ff92ee8a900000000000000000000000000000000000000000000000000000000815260040160405180910390fd5b60018560000160006101000a81548167ffffffffffffffff021916908367ffffffffffffffff1602179055508315611bd65760018560000160086101000a81548160ff0219169083151502179055505b611bde612c65565b611be6612c6f565b611bee612c81565b611bf6612c8b565b611c207fb19546dff01e856fb3f010c267a7b1c60363cf8a4664e21cc89c26224620214e80612c95565b611c6a7fe2f4eaae4a9751e85a3e4a7b9587827a877f29914755229b07a7b2da98285f707fb19546dff01e856fb3f010c267a7b1c60363cf8a4664e21cc89c26224620214e612c95565b611cb47f20296b01d0b6bd176f0c1e29644934c0047abf080dae43609a1bbc09e39bafdb7fb19546dff01e856fb3f010c267a7b1c60363cf8a4664e21cc89c26224620214e612c95565b611cde7fb19546dff01e856fb3f010c267a7b1c60363cf8a4664e21cc89c26224620214e876125e2565b508315611d3b5760008560000160086101000a81548160ff0219169083151502179055507fc7f505b2f371ae2175ee4913f4499e1f2633a7b5936321eed1cdaeb6115181d26001604051611d32919061487b565b60405180910390a15b505050505050565b7f20296b01d0b6bd176f0c1e29644934c0047abf080dae43609a1bbc09e39bafdb611d6d816125ce565b611d7561255e565b611d7d610827565b60008060008781526020019081526020016000205414611dd2576040517f08c379a0000000000000000000000000000000000000000000000000000000008152600401611dc99061424e565b60405180910390fd5b600060038585604051611de69291906141e9565b9081526020016040518091039020905060016002811115611e0a57611e09613efd565b5b8160040160009054906101000a900460ff166002811115611e2e57611e2d613efd565b5b14611e6e576040517f08c379a0000000000000000000000000000000000000000000000000000000008152600401611e65906148e2565b60405180910390fd5b60008160010160008573ffffffffffffffffffffffffffffffffffffffff1673ffffffffffffffffffffffffffffffffffffffff1681526020019081526020016000205411611ef2576040517f08c379a0000000000000000000000000000000000000000000000000000000008152600401611ee99061494e565b60405180910390fd5b60028160040160006101000a81548160ff02191690836002811115611f1a57611f19613efd565b5b0217905550828160020160006101000a81548173ffffffffffffffffffffffffffffffffffffffff021916908373ffffffffffffffffffffffffffffffffffffffff1602179055506000805b826000018054905081101561217f576000836000018281548110611f8d57611f8c6145f4565b5b9060005260206000200160009054906101000a900473ffffffffffffffffffffffffffffffffffffffff16905060008460010160008373ffffffffffffffffffffffffffffffffffffffff1673ffffffffffffffffffffffffffffffffffffffff16815260200190815260200160002054905080600260008473ffffffffffffffffffffffffffffffffffffffff1673ffffffffffffffffffffffffffffffffffffffff168152602001908152602001600020600082825461204f9190613ffb565b925050819055508673ffffffffffffffffffffffffffffffffffffffff168273ffffffffffffffffffffffffffffffffffffffff16146121705780600160008473ffffffffffffffffffffffffffffffffffffffff1673ffffffffffffffffffffffffffffffffffffffff16815260200190815260200160002054101561210b576040517f08c379a0000000000000000000000000000000000000000000000000000000008152600401612102906149ba565b60405180910390fd5b80600160008473ffffffffffffffffffffffffffffffffffffffff1673ffffffffffffffffffffffffffffffffffffffff168152602001908152602001600020600082825461215a9190613ffb565b92505081905550808461216d91906134e9565b93505b50508080600101915050611f66565b5080600160008673ffffffffffffffffffffffffffffffffffffffff1673ffffffffffffffffffffffffffffffffffffffff16815260200190815260200160002060008282546121cf91906134e9565b925050819055504260008089815260200190815260200160002081905550867f152b650f63bd7f0b493736bd102f1d42cd41930e270e0e30798037813ac3159587878785426040516122259594939291906149da565b60405180910390a250506122376125b5565b5050505050565b612246610827565b60003411612289576040517f08c379a000000000000000000000000000000000000000000000000000000000815260040161228090614a74565b60405180910390fd5b34600160003373ffffffffffffffffffffffffffffffffffffffff1673ffffffffffffffffffffffffffffffffffffffff16815260200190815260200160002060008282546122d891906134e9565b925050819055503373ffffffffffffffffffffffffffffffffffffffff167f73a19dd210f1a7f902193214c0ee91dd35ee5b4d920cba8d519eca65a7b488ca344260405161232792919061352c565b60405180910390a2565b61233a826108e2565b612343816125ce565b61234d83836126eb565b50505050565b6060600383836040516123679291906141e9565b90815260200160405180910390206000018054806020026020016040519081016040528092919081815260200182805480156123f857602002820191906000526020600020905b8160009054906101000a900473ffffffffffffffffffffffffffffffffffffffff1673ffffffffffffffffffffffffffffffffffffffff16815260200190600101908083116123ae575b5050505050905092915050565b7fb19546dff01e856fb3f010c267a7b1c60363cf8a4664e21cc89c26224620214e81565b6000806000808481526020019081526020016000205414159050919050565b60006003838360405161245c9291906141e9565b908152602001604051809103902060040160009054906101000a900460ff16905092915050565b6000600160008373ffffffffffffffffffffffffffffffffffffffff1673ffffffffffffffffffffffffffffffffffffffff168152602001908152602001600020549050919050565b60007f01ffc9a7000000000000000000000000000000000000000000000000000000007bffffffffffffffffffffffffffffffffffffffffffffffffffffffff1916827bffffffffffffffffffffffffffffffffffffffffffffffffffffffff1916149050919050565b60007f02dd7bc7dec4dceedda775e58dd541e08a116c6c53815c0bd028192f7b626800905090565b6000612568612d00565b905060028160000154036125a8576040517f3ee5aeb500000000000000000000000000000000000000000000000000000000815260040160405180910390fd5b6002816000018190555050565b60006125bf612d00565b90506001816000018190555050565b6125df816125da6126e3565b612d28565b50565b6000806125ed612536565b90506125f9848461144b565b6126d757600181600001600086815260200190815260200160002060000160008573ffffffffffffffffffffffffffffffffffffffff1673ffffffffffffffffffffffffffffffffffffffff16815260200190815260200160002060006101000a81548160ff0219169083151502179055506126736126e3565b73ffffffffffffffffffffffffffffffffffffffff168373ffffffffffffffffffffffffffffffffffffffff16857f2f8788117e7eff1d82e926ec794901d17c78024a50270940304540a733656f0d60405160405180910390a460019150506126dd565b60009150505b92915050565b600033905090565b6000806126f6612536565b9050612702848461144b565b156127e157600081600001600086815260200190815260200160002060000160008573ffffffffffffffffffffffffffffffffffffffff1673ffffffffffffffffffffffffffffffffffffffff16815260200190815260200160002060006101000a81548160ff02191690831515021790555061277d6126e3565b73ffffffffffffffffffffffffffffffffffffffff168373ffffffffffffffffffffffffffffffffffffffff16857ff6391f5c32d9c69d2a47ea670b442974b53935d1edc7fd64eb21e047a839171b60405160405180910390a460019150506127e7565b60009150505b92915050565b6127f5612d79565b60006127ff612bb7565b905060008160000160006101000a81548160ff0219169083151502179055507f5db9ee0a495bf2e6ff9c91a7834c1ba4fdd244a5e8aa4e537bd38aeae4b073aa6128476126e3565b6040516128549190613b78565b60405180910390a150565b7f000000000000000000000000000000000000000000000000000000000000000073ffffffffffffffffffffffffffffffffffffffff163073ffffffffffffffffffffffffffffffffffffffff16148061290c57507f000000000000000000000000000000000000000000000000000000000000000073ffffffffffffffffffffffffffffffffffffffff166128f3612db9565b73ffffffffffffffffffffffffffffffffffffffff1614155b15612943576040517fe07c8dba00000000000000000000000000000000000000000000000000000000815260040160405180910390fd5b565b7fb19546dff01e856fb3f010c267a7b1c60363cf8a4664e21cc89c26224620214e61296f816125ce565b5050565b8173ffffffffffffffffffffffffffffffffffffffff166352d1902d6040518163ffffffff1660e01b8152600401602060405180830381865afa9250505080156129db57506040513d601f19601f820116820180604052508101906129d89190614aa9565b60015b612a1c57816040517f4c9c8ce3000000000000000000000000000000000000000000000000000000008152600401612a139190613b78565b60405180910390fd5b7f360894a13ba1a3210667c828492db98dca3e2076cc3735a920a3ca505d382bbc60001b8114612a8357806040517faa1d49a4000000000000000000000000000000000000000000000000000000008152600401612a7a9190613696565b60405180910390fd5b612a8d8383612e10565b505050565b7f000000000000000000000000000000000000000000000000000000000000000073ffffffffffffffffffffffffffffffffffffffff163073ffffffffffffffffffffffffffffffffffffffff1614612b17576040517fe07c8dba00000000000000000000000000000000000000000000000000000000815260040160405180910390fd5b565b600080612b2585612e83565b90506000612b8085858080601f016020809104026020016040519081016040528093929190818152602001838380828437600081840152601f19601f8201169050808301925050505050505083612eb990919063ffffffff16565b9050612bac7fe2f4eaae4a9751e85a3e4a7b9587827a877f29914755229b07a7b2da98285f708261144b565b925050509392505050565b60007fcd5ed15c6e187e77e9aee88184c21f4f2182ab5827cb3b7e07fbedcd63f03300905090565b612be7610827565b6000612bf1612bb7565b905060018160000160006101000a81548160ff0219169083151502179055507f62e78cea01bee320cd4e420270b5ea74000d11b0c9f74754ebdbfc544b05a258612c396126e3565b604051612c469190613b78565b60405180910390a150565b600080612c5c612ee5565b90508091505090565b612c6d612f10565b565b612c77612f10565b612c7f612f50565b565b612c89612f10565b565b612c93612f10565b565b6000612c9f612536565b90506000612cac846108e2565b905082826000016000868152602001908152602001600020600101819055508281857fbd79b86ffe0ab8e8776151514217cd7cacd52c909f66475c3af44e129f0b00ff60405160405180910390a450505050565b60007f9b779b17422d0df92223018b32b4d1fa46e071723d6817e2486d003becc55f00905090565b612d32828261144b565b612d755780826040517fe2517d3f000000000000000000000000000000000000000000000000000000008152600401612d6c929190614ad6565b60405180910390fd5b5050565b612d816111a2565b612db7576040517f8dfc202b00000000000000000000000000000000000000000000000000000000815260040160405180910390fd5b565b6000612de77f360894a13ba1a3210667c828492db98dca3e2076cc3735a920a3ca505d382bbc60001b612f71565b60000160009054906101000a900473ffffffffffffffffffffffffffffffffffffffff16905090565b612e1982612f7b565b8173ffffffffffffffffffffffffffffffffffffffff167fbc7cd75a20ee27fd9adebab32041f755214dbc6bffa90cc0225b39da2e5c2d3b60405160405180910390a2600081511115612e7657612e708282613048565b50612e7f565b612e7e6130cc565b5b5050565b60007f19457468657265756d205369676e6564204d6573736167653a0a33320000000060005281601c52603c6000209050919050565b600080600080612ec98686613109565b925092509250612ed98282613165565b82935050505092915050565b60007ff0c57e16840df040f15088dc2f81fe391c3923bec73e23a9662efc9c229c6a0060001b905090565b612f186132c9565b612f4e576040517fd7e6bcf800000000000000000000000000000000000000000000000000000000815260040160405180910390fd5b565b612f58612f10565b6000612f62612d00565b90506001816000018190555050565b6000819050919050565b60008173ffffffffffffffffffffffffffffffffffffffff163b03612fd757806040517f4c9c8ce3000000000000000000000000000000000000000000000000000000008152600401612fce9190613b78565b60405180910390fd5b806130047f360894a13ba1a3210667c828492db98dca3e2076cc3735a920a3ca505d382bbc60001b612f71565b60000160006101000a81548173ffffffffffffffffffffffffffffffffffffffff021916908373ffffffffffffffffffffffffffffffffffffffff16021790555050565b60606000808473ffffffffffffffffffffffffffffffffffffffff16846040516130729190614b3b565b600060405180830381855af49150503d80600081146130ad576040519150601f19603f3d011682016040523d82523d6000602084013e6130b2565b606091505b50915091506130c28583836132e9565b9250505092915050565b6000341115613107576040517fb398979f00000000000000000000000000000000000000000000000000000000815260040160405180910390fd5b565b6000806000604184510361314e5760008060006020870151925060408701519150606087015160001a905061314088828585613378565b95509550955050505061315e565b60006002855160001b9250925092505b9250925092565b6000600381111561317957613178613efd565b5b82600381111561318c5761318b613efd565b5b03156132c557600160038111156131a6576131a5613efd565b5b8260038111156131b9576131b8613efd565b5b036131f0576040517ff645eedf00000000000000000000000000000000000000000000000000000000815260040160405180910390fd5b6002600381111561320457613203613efd565b5b82600381111561321757613216613efd565b5b0361325c578060001c6040517ffce698f7000000000000000000000000000000000000000000000000000000008152600401613253919061373c565b60405180910390fd5b60038081111561326f5761326e613efd565b5b82600381111561328257613281613efd565b5b036132c457806040517fd78bce0c0000000000000000000000000000000000000000000000000000000081526004016132bb9190613696565b60405180910390fd5b5b5050565b60006132d3612c51565b60000160089054906101000a900460ff16905090565b6060826132fe576132f98261346c565b613370565b60008251148015613326575060008473ffffffffffffffffffffffffffffffffffffffff163b145b1561336857836040517f9996b31500000000000000000000000000000000000000000000000000000000815260040161335f9190613b78565b60405180910390fd5b819050613371565b5b9392505050565b60008060007f7fffffffffffffffffffffffffffffff5d576e7357a4501ddfe92f46681b20a08460001c11156133b8576000600385925092509250613462565b6000600188888888604051600081526020016040526040516133dd9493929190614b6e565b6020604051602081039080840390855afa1580156133ff573d6000803e3d6000fd5b505050602060405103519050600073ffffffffffffffffffffffffffffffffffffffff168173ffffffffffffffffffffffffffffffffffffffff160361345357600060016000801b93509350935050613462565b8060008060001b935093509350505b9450945094915050565b60008151111561347e57805160208201fd5b6040517fd6bda27500000000000000000000000000000000000000000000000000000000815260040160405180910390fd5b6000819050919050565b7f4e487b7100000000000000000000000000000000000000000000000000000000600052601160045260246000fd5b60006134f4826134b0565b91506134ff836134b0565b9250828201905080821115613517576135166134ba565b5b92915050565b613526816134b0565b82525050565b6000604082019050613541600083018561351d565b61354e602083018461351d565b9392505050565b6000604051905090565b600080fd5b600080fd5b60007fffffffff0000000000000000000000000000000000000000000000000000000082169050919050565b61359e81613569565b81146135a957600080fd5b50565b6000813590506135bb81613595565b92915050565b6000602082840312156135d7576135d661355f565b5b60006135e5848285016135ac565b91505092915050565b60008115159050919050565b613603816135ee565b82525050565b600060208201905061361e60008301846135fa565b92915050565b6000819050919050565b61363781613624565b811461364257600080fd5b50565b6000813590506136548161362e565b92915050565b6000602082840312156136705761366f61355f565b5b600061367e84828501613645565b91505092915050565b61369081613624565b82525050565b60006020820190506136ab6000830184613687565b92915050565b600073ffffffffffffffffffffffffffffffffffffffff82169050919050565b60006136dc826136b1565b9050919050565b6136ec816136d1565b81146136f757600080fd5b50565b600081359050613709816136e3565b92915050565b6000602082840312156137255761372461355f565b5b6000613733848285016136fa565b91505092915050565b6000602082019050613751600083018461351d565b92915050565b613760816134b0565b811461376b57600080fd5b50565b60008135905061377d81613757565b92915050565b6000602082840312156137995761379861355f565b5b60006137a78482850161376e565b91505092915050565b600080604083850312156137c7576137c661355f565b5b60006137d585828601613645565b92505060206137e6858286016136fa565b9150509250929050565b600080fd5b600080fd5b600080fd5b60008083601f840112613815576138146137f0565b5b8235905067ffffffffffffffff811115613832576138316137f5565b5b60208301915083600182028301111561384e5761384d6137fa565b5b9250929050565b60008060006040848603121561386e5761386d61355f565b5b600084013567ffffffffffffffff81111561388c5761388b613564565b5b613898868287016137ff565b935093505060206138ab868287016136fa565b9150509250925092565b600080fd5b6000601f19601f8301169050919050565b7f4e487b7100000000000000000000000000000000000000000000000000000000600052604160045260246000fd5b613903826138ba565b810181811067ffffffffffffffff82111715613922576139216138cb565b5b80604052505050565b6000613935613555565b905061394182826138fa565b919050565b600067ffffffffffffffff821115613961576139606138cb565b5b61396a826138ba565b9050602081019050919050565b82818337600083830152505050565b600061399961399484613946565b61392b565b9050828152602081018484840111156139b5576139b46138b5565b5b6139c0848285613977565b509392505050565b600082601f8301126139dd576139dc6137f0565b5b81356139ed848260208601613986565b91505092915050565b60008060408385031215613a0d57613a0c61355f565b5b6000613a1b858286016136fa565b925050602083013567ffffffffffffffff811115613a3c57613a3b613564565b5b613a48858286016139c8565b9150509250929050565b60008083601f840112613a6857613a676137f0565b5b8235905067ffffffffffffffff811115613a8557613a846137f5565b5b602083019150836001820283011115613aa157613aa06137fa565b5b9250929050565b60008060008060608587031215613ac257613ac161355f565b5b6000613ad087828801613645565b9450506020613ae18782880161376e565b935050604085013567ffffffffffffffff811115613b0257613b01613564565b5b613b0e87828801613a52565b925092505092959194509250565b60008060208385031215613b3357613b3261355f565b5b600083013567ffffffffffffffff811115613b5157613b50613564565b5b613b5d858286016137ff565b92509250509250929050565b613b72816136d1565b82525050565b6000602082019050613b8d6000830184613b69565b92915050565b600081519050919050565b600082825260208201905092915050565b60005b83811015613bcd578082015181840152602081019050613bb2565b60008484015250505050565b6000613be482613b93565b613bee8185613b9e565b9350613bfe818560208601613baf565b613c07816138ba565b840191505092915050565b60006020820190508181036000830152613c2c8184613bd9565b905092915050565b60008083601f840112613c4a57613c496137f0565b5b8235905067ffffffffffffffff811115613c6757613c666137f5565b5b602083019150836020820283011115613c8357613c826137fa565b5b9250929050565b60008083601f840112613ca057613c9f6137f0565b5b8235905067ffffffffffffffff811115613cbd57613cbc6137f5565b5b602083019150836020820283011115613cd957613cd86137fa565b5b9250929050565b60008060008060008060006080888a031215613cff57613cfe61355f565b5b6000613d0d8a828b01613645565b975050602088013567ffffffffffffffff811115613d2e57613d2d613564565b5b613d3a8a828b016137ff565b9650965050604088013567ffffffffffffffff811115613d5d57613d5c613564565b5b613d698a828b01613c34565b9450945050606088013567ffffffffffffffff811115613d8c57613d8b613564565b5b613d988a828b01613c8a565b925092505092959891949750929550565b60008060008060608587031215613dc357613dc261355f565b5b6000613dd187828801613645565b945050602085013567ffffffffffffffff811115613df257613df1613564565b5b613dfe878288016137ff565b93509350506040613e11878288016136fa565b91505092959194509250565b600081519050919050565b600082825260208201905092915050565b6000819050602082019050919050565b613e52816136d1565b82525050565b6000613e648383613e49565b60208301905092915050565b6000602082019050919050565b6000613e8882613e1d565b613e928185613e28565b9350613e9d83613e39565b8060005b83811015613ece578151613eb58882613e58565b9750613ec083613e70565b925050600181019050613ea1565b5085935050505092915050565b60006020820190508181036000830152613ef58184613e7d565b905092915050565b7f4e487b7100000000000000000000000000000000000000000000000000000000600052602160045260246000fd5b60038110613f3d57613f3c613efd565b5b50565b6000819050613f4e82613f2c565b919050565b6000613f5e82613f40565b9050919050565b613f6e81613f53565b82525050565b6000602082019050613f896000830184613f65565b92915050565b7f416d6f756e74206d757374206265203e20300000000000000000000000000000600082015250565b6000613fc5601283613b9e565b9150613fd082613f8f565b602082019050919050565b60006020820190508181036000830152613ff481613fb8565b9050919050565b6000614006826134b0565b9150614011836134b0565b9250828203905081811115614029576140286134ba565b5b92915050565b7f4c6f636b65642062657420616d6f756e74000000000000000000000000000000600082015250565b6000614065601183613b9e565b91506140708261402f565b602082019050919050565b6000602082019050818103600083015261409481614058565b9050919050565b7f496e73756666696369656e742062616c616e6365000000000000000000000000600082015250565b60006140d1601483613b9e565b91506140dc8261409b565b602082019050919050565b60006020820190508181036000830152614100816140c4565b9050919050565b600081905092915050565b50565b6000614122600083614107565b915061412d82614112565b600082019050919050565b600061414382614115565b9150819050919050565b7f5769746864726177206661696c65640000000000000000000000000000000000600082015250565b6000614183600f83613b9e565b915061418e8261414d565b602082019050919050565b600060208201905081810360008301526141b281614176565b9050919050565b600081905092915050565b60006141d083856141b9565b93506141dd838584613977565b82840190509392505050565b60006141f68284866141c4565b91508190509392505050565b7f547820616c726561647920757365640000000000000000000000000000000000600082015250565b6000614238600f83613b9e565b915061424382614202565b602082019050919050565b600060208201905081810360008301526142678161422b565b9050919050565b7f496e76616c696420616d6f756e74000000000000000000000000000000000000600082015250565b60006142a4600e83613b9e565b91506142af8261426e565b602082019050919050565b600060208201905081810360008301526142d381614297565b9050919050565b60008160601b9050919050565b60006142f2826142da565b9050919050565b6000614304826142e7565b9050919050565b61431c614317826136d1565b6142f9565b82525050565b6000819050919050565b61433d61433882613624565b614322565b82525050565b6000819050919050565b61435e614359826134b0565b614343565b82525050565b6000614370828761430b565b601482019150614380828661432c565b602082019150614390828561434d565b6020820191506143a0828461430b565b60148201915081905095945050505050565b7f496e76616c6964207369676e6174757265000000000000000000000000000000600082015250565b60006143e8601183613b9e565b91506143f3826143b2565b602082019050919050565b60006020820190508181036000830152614417816143db565b9050919050565b7f5472616e73666572206661696c65640000000000000000000000000000000000600082015250565b6000614454600f83613b9e565b915061445f8261441e565b602082019050919050565b6000602082019050818103600083015261448381614447565b9050919050565b7f4e6f7420656e6f75676820706c61796572730000000000000000000000000000600082015250565b60006144c0601283613b9e565b91506144cb8261448a565b602082019050919050565b600060208201905081810360008301526144ef816144b3565b9050919050565b7f506c617965727320616e6420616d6f756e7473206c656e677468206d69736d6160008201527f7463680000000000000000000000000000000000000000000000000000000000602082015250565b6000614552602383613b9e565b915061455d826144f6565b604082019050919050565b6000602082019050818103600083015261458181614545565b9050919050565b7f47616d6520616374697665206f7220656e646564000000000000000000000000600082015250565b60006145be601483613b9e565b91506145c982614588565b602082019050919050565b600060208201905081810360008301526145ed816145b1565b9050919050565b7f4e487b7100000000000000000000000000000000000000000000000000000000600052603260045260246000fd5b7f496e76616c696420626574000000000000000000000000000000000000000000600082015250565b6000614659600b83613b9e565b915061466482614623565b602082019050919050565b600060208201905081810360008301526146888161464c565b9050919050565b600061469b8385613b9e565b93506146a8838584613977565b6146b1836138ba565b840190509392505050565b6000819050919050565b60006146d560208401846136fa565b905092915050565b6000602082019050919050565b60006146f68385613e28565b9350614701826146bc565b8060005b8581101561473a5761471782846146c6565b6147218882613e58565b975061472c836146dd565b925050600181019050614705565b5085925050509392505050565b600082825260208201905092915050565b600080fd5b82818337505050565b60006147728385614747565b93507f07ffffffffffffffffffffffffffffffffffffffffffffffffffffffffffffff8311156147a5576147a4614758565b5b6020830292506147b683858461475d565b82840190509392505050565b600060808201905081810360008301526147dd81898b61468f565b905081810360208301526147f28187896146ea565b90508181036040830152614807818587614766565b9050614816606083018461351d565b98975050505050505050565b6000819050919050565b600067ffffffffffffffff82169050919050565b6000819050919050565b600061486561486061485b84614822565b614840565b61482c565b9050919050565b6148758161484a565b82525050565b6000602082019050614890600083018461486c565b92915050565b7f47616d65206e6f74206163746976650000000000000000000000000000000000600082015250565b60006148cc600f83613b9e565b91506148d782614896565b602082019050919050565b600060208201905081810360008301526148fb816148bf565b9050919050565b7f57696e6e657220646964206e6f74207061727469636970617465000000000000600082015250565b6000614938601a83613b9e565b915061494382614902565b602082019050919050565b600060208201905081810360008301526149678161492b565b9050919050565b7f4c6f7365722068617320696e73756666696369656e742062616c616e63650000600082015250565b60006149a4601e83613b9e565b91506149af8261496e565b602082019050919050565b600060208201905081810360008301526149d381614997565b9050919050565b600060808201905081810360008301526149f581878961468f565b9050614a046020830186613b69565b614a11604083018561351d565b614a1e606083018461351d565b9695505050505050565b7f4d7573742073656e6420736f6d65206e617469766520746f6b656e0000000000600082015250565b6000614a5e601b83613b9e565b9150614a6982614a28565b602082019050919050565b60006020820190508181036000830152614a8d81614a51565b9050919050565b600081519050614aa38161362e565b92915050565b600060208284031215614abf57614abe61355f565b5b6000614acd84828501614a94565b91505092915050565b6000604082019050614aeb6000830185613b69565b614af86020830184613687565b9392505050565b600081519050919050565b6000614b1582614aff565b614b1f8185614107565b9350614b2f818560208601613baf565b80840191505092915050565b6000614b478284614b0a565b915081905092915050565b600060ff82169050919050565b614b6881614b52565b82525050565b6000608082019050614b836000830187613687565b614b906020830186614b5f565b614b9d6040830185613687565b614baa6060830184613687565b9594505050505056fea26469706673582212209aa742129702093669f8f1ee8b1edab8f72e47e4f0708f8053be21a3122efe4564736f6c634300081c0033",
  "linkReferences": {},
  "deployedLinkReferences": {}
}